:100000000C9467030C948F030C948F030C948F0350
:100010000C948F030C948F030C948F030C948F0318
:100020000C948F030C948F030C948F030C948F0308
:100030000C948F030C948F030C948F030C948F03F8
:100040000C949E240C948F030C946C240C944624E2
:100050000C948F030C948F030C948F030C948F03D8
:100060000C94E8240C948F0300000000003E5B4FCA
:100070005B3E3E6B4F6B3E1C3E7C3E1C183C7E3C08
:10008000181C577D571C1C5E7F5E1C00183C180016
:10009000FFE7C3E7FF0018241800FFE7DBE7FF30A6
:1000A000483A060E2629792926407F050507407F14
:1000B00005253F5A3CE73C5A7F3E1C1C08081C1C87
:1000C0003E7F14227F22145F5F005F5F06097F017D
:1000D0007F006689956A606060606094A2FFA29468
:1000E00008047E040810207E201008082A1C080836
:1000F0001C2A08081E101010100C1E0C1E0C303884
:100100003E3830060E3E0E06000000000000005F84
:1001100000000007000700147F147F14242A7F2AA0
:100120001223130864623649562050000807030062
:10013000001C2241000041221C002A1C7F1C2A08AE
:10014000083E080800807030000808080808000011
:1001500060600020100804023E5149453E00427F85
:10016000400072494949462141494D331814127FD4
:100170001027454545393C4A494931412111090774
:100180003649494936464949291E000014000000F5
:1001900040340000000814224114141414140041C7
:1001A00022140802015909063E415D594E7C121184
:1001B000127C7F494949363E414141227F414141BC
:1001C0003E7F494949417F090909013E4141517337
:1001D0007F0808087F00417F41002040413F017FA8
:1001E000081422417F404040407F021C027F7F0470
:1001F00008107F3E4141413E7F090909063E4151B9
:10020000215E7F09192946264949493203017F01A8
:10021000033F4040403F1F2040201F3F4038403FA9
:10022000631408146303047804036159494D4300BF
:100230007F4141410204081020004141417F0402F6
:10024000010204404040404000030708002054548D
:1002500078407F284444383844444428384444286B
:100260007F385454541800087E090218A4A49C78BE
:100270007F0804047800447D40002040403D007F1A
:100280001028440000417F40007C047804787C08FA
:100290000404783844444438FC18242418182424CE
:1002A00018FC7C08040408485454542404043F44B3
:1002B000243C4040207C1C2040201C3C4030403CE2
:1002C00044281028444C9090907C4464544C440042
:1002D00008364100000077000000413608000201A6
:1002E0000204023C2623263C1EA1A161123A404092
:1002F000207A38545455592155557941225454780F
:1003000042215554784020545579400C1E527212A7
:100310003955555559395454545939555454580030
:1003200000457C410002457D420001457C407D1234
:1003300011127DF0282528F07C5455450020545496
:100340007C547C0A097F4932494949323A44444441
:100350003A324A4848303A4141217A3A424020787C
:10036000009DA0A07D3D4242423D3D4040403D3C7D
:1003700024FF2424487E4943662B2FFC2F2BFF09A2
:1003800029F620C0887E0903205454794100004496
:100390007D413048484A32384040227A007A0A0A81
:1003A000727D0D19317D2629292F282629292926F4
:1003B00030484D4020380808080808080808382F39
:1003C00010C8ACBA2F102834FA00007B00000814C3
:1003D0002A142222142A14085500550055AA55AA99
:1003E00055AAFF55FF55FF000000FF00101010FF39
:1003F00000141414FF001010FF00FF1010F010F094
:10040000141414FC001414F700FF0000FF00FF1484
:1004100014F404FC141417101F10101F101F1414D0
:10042000141F00101010F0000000001F101010101A
:100430001F10101010F010000000FF10101010100E
:1004400010101010FF10000000FF140000FF00FF4C
:1004500000001F10170000FC04F4141417101714E8
:1004600014F404F40000FF00F7141414141414140A
:10047000F700F7141414171410101F101F1414147D
:10048000F4141010F010F000001F101F0000001FE7
:1004900014000000FC140000F010F01010FF10FF1A
:1004A000141414FF141010101F00000000F010FFAF
:1004B000FFFFFFFFF0F0F0F0F0FFFFFF0000000093
:1004C00000FFFF0F0F0F0F0F3844443844FC4A4A17
:1004D0004A347E02020606027E027E0263554941CC
:1004E000633844443C04407E201E2006027E020203
:1004F00099A5E7A5991C2A492A1C4C7201724C3017
:100500004A4D4D303048784830BC625A463D3E49ED
:100510004949007E0101017E2A2A2A2A2A44445F91
:10052000444440514A444040444A51400000FF0185
:1005300003E080FF000008086B6B08361236243693
:10054000060F090F060000181800000010100030F8
:1005500040FF0101001F01011E00191D1712003C80
:100560003C3C3C000000000000000000240027008C
:100570002A0004E010021C07123732292D29252BEE
:100580003900010310E110031D07062E2C292D2E22
:100590002E373F0000021013800A298064022A04CB
:1005A0000000007F2B040000009F0F018096118047
:1005B000FFB103012C2DB203012C2DB306012C2D0C
:1005C000012C2DB40107C003A20284C101C5C202DF
:1005D0000A00C3028A2AC4028AEEC5010E20003630
:1005E00001C83A0105424D5020666F726D6174205A
:1005F0006E6F74207265636F676E697A65642E0032
:100600004C6F6164656420696E2000496D616765A7
:100610002073697A653A20004269742044657074D9
:10062000683A20004865616465722073697A653AAA
:100630002000496D616765204F66667365743A20D6
:100640000046696C652073697A653A200046696CDA
:1006500065206E6F7420666F756E64004C6F616408
:10066000696E6720696D61676520270000000000E2
:1006700023002600290000000008000201000003FA
:10068000040700000000000000007C3C3E5E2B3DA3
:100690003F2F5B5D3B2C2A225C00010204081020E6
:1006A000408001020408102001020408102000000C
:1006B0000000250028002B000404040404040404A2
:1006C00002020202020203030303030303261124AE
:1006D0001FBECFEFD8E0DEBFCDBF25E0A0EAB1E07E
:1006E00001C01D92A735B207E1F711E0A0E0B1E02B
:1006F000ECEBFEE502C005900D92A03AB107D9F7E8
:1007000013E0C7E6D3E004C02197FE010E94302D1C
:10071000C636D107C9F70E94F1260C945C2F0C94C1
:100720000000AF92BF92CF92DF92EF92FF920F93B1
:100730001F93CF93DF936C017B018B01040F151F77
:10074000EB015E01AE18BF08C017D10759F06991DF
:10075000D601ED91FC910190F081E02DC601099543
:10076000892B79F7C501DF91CF911F910F91FF90F0
:10077000EF90DF90CF90BF90AF900895FC01538D24
:10078000448D252F30E0842F90E0821B930B54176B
:1007900010F0CF96089501970895FC01918D828DF8
:1007A000981761F0A28DAE0FBF2FB11D5D968C9191
:1007B000928D9F5F9F73928F90E008958FEF9FEFD0
:1007C0000895FC01918D828D981731F0828DE80F8C
:1007D000F11D858D90E008958FEF9FEF0895FC0146
:1007E000918D228D892F90E0805C9F4F821B910913
:1007F0008F739927089583E294E00E94EF0321E02C
:10080000892B09F420E0822F089580E090E0892B65
:1008100029F00E94FB0381110C9400000895FC0153
:10082000A48DA80FB92FB11DA35ABF4F2C91848D51
:1008300090E001968F739927848FA689B7892C93AE
:10084000A089B1898C91837080648C93938D848D01
:10085000981306C00288F389E02D80818F7D808304
:100860000895EF92FF920F931F93CF93DF93EC01C4
:1008700081E0888F9B8D8C8D98131AC0E889F98947
:10088000808185FF15C09FB7F894EE89FF8960834A
:10089000E889F98980818370806480839FBF81E0CB
:1008A00090E0DF91CF911F910F91FF90EF9008950D
:1008B000F62E0B8D10E00F5F1F4F0F731127E02EE8
:1008C0008C8D8E110CC00FB607FCFACFE889F98920
:1008D000808185FFF5CFCE010E940F04F1CFEB8D13
:1008E000EC0FFD2FF11DE35AFF4FF0829FB7F894F4
:1008F0000B8FEA89FB8980818062CFCF682F83E2EA
:1009000094E00C9431040F931F93CF93DF938C01E9
:10091000D0E0C0E0F801EC0FFD1F6491662341F0C8
:1009200083E294E00E943104892B11F02196F2CFEA
:10093000CE01DF91CF911F910F910895CF93DF9357
:10094000EC01888D8823B9F0AA89BB89E889F989E7
:100950008C9185FD03C0808186FD0DC00FB607FC1C
:10096000F7CF8C9185FFF2CF808185FFEDCFCE014F
:100970000E940F04E9CFDF91CF910895833081F079
:1009800028F4813099F08230A9F008958730A9F0D9
:100990008830C9F08430B1F4809180008F7D03C02D
:1009A000809180008F7780938000089584B58F7741
:1009B00084BD089584B58F7DFBCF8091B0008F7783
:1009C0008093B00008958091B0008F7DF9CF1F9380
:1009D000CF93DF93282F30E0F901EA58F94F849143
:1009E000F901E656F94FD491F901E854F94FC49151
:1009F000CC23A9F0162F81110E94BE04EC2FF0E049
:100A0000EE0FFF1FE255F94FA591B4918FB7F894FF
:100A1000EC91111108C0D095DE23DC938FBFDF91DC
:100A2000CF911F910895DE2BF8CFCF93DF9390E005
:100A3000FC01E656F94F24918854994FFC018491AA
:100A40008823C9F090E0880F991FFC01E859FA4FFC
:100A5000A591B491FC01E255F94FC591D491611172
:100A60000DC09FB7F8948C91209582238C93888138
:100A7000282328839FBFDF91CF910895623051F4DE
:100A80009FB7F8943C91822F809583238C93E881C3
:100A90002E2BEFCF8FB7F894EC912E2B2C938FBF8A
:100AA000EACF3FB7F89480911C0290911D02A0916B
:100AB0001E02B0911F0226B5A89B05C02F3F19F05A
:100AC0000196A11DB11D3FBFBA2FA92F982F8827CE
:100AD000BC01CD01620F711D811D911D42E0660FA9
:100AE000771F881F991F4A95D1F708958F929F927B
:100AF000AF92BF92CF92DF92EF92FF926B017C0197
:100B00000E9451054B015C01C114D104E104F104C0
:100B1000B9F00E945105681979098A099B09683E54
:100B200073408105910580F321E0C21AD108E108E4
:100B3000F10888EE880E83E0981EA11CB11CE4CF5A
:100B4000FF90EF90DF90CF90BF90AF909F908F90ED
:100B500008952FB7F894609118027091190280914E
:100B60001A0290911B022FBF08952091CD01260FEC
:100B70003327331F21323105ECF42091F101FC01C0
:100B800090E080E0243069F082E00895A091CD01EA
:100B90002191AC0143555E4FA40FB52FB11D2C938D
:100BA0000196861798F38091CD01680F6093CD016F
:100BB00080E0089581E0089508958FEF9FEF0895F4
:100BC0008FEF9FEF08958091A60190E09195819518
:100BD00091090895CF93DF93CB01EA01642F0E941E
:100BE000B505CE01DF91CF910895CF93DF931F928A
:100BF000CDB7DEB7698361E0CE0101960E94B505ED
:100C000081E090E00F90DF91CF910895FC01DB012E
:100C100012968D919C9113979383828382E391E046
:100C20009183808314968C911497848315968C916C
:100C30001597858316964D915D916D917C911997CD
:100C400046835783608771871A964D915D916D91A8
:100C50007C911D9742875387648775871E964D91B7
:100C60005D916D917C91519746875787608B718B11
:100C700052968C915297828B53964D915D916D91C6
:100C80007C915697438B548B658B768B57964D9101
:100C90005D916D917C915A97478B508F618F728FC8
:100CA0005B968D919C91948F838F0895DC0159966A
:100CB000ED91FC913097B9F083899489A589B68923
:100CC0004285538564857585841B950BA60BB70BF0
:100CD000811520E89207A105B10538F08FEF9FE755
:100CE000A0E0B0E0089590E080E00895DC0159961E
:100CF0008D919C91009739F0DC01ED91FC9104807D
:100D0000F581E02D099490E080E00895CF93DF9382
:100D10001F92CDB7DEB76983DC01ED91FC910280B3
:100D2000F381E02D41E050E0BE016F5F7F4F0995F8
:100D30000F90DF91CF910895CF93CFB7F894809122
:100D4000A001811127C0E2ECF6E08491E4EAF6E02C
:100D50009491E82FF0E0EE0FFF1FE859FA4FA591AC
:100D6000B491EC91E92321F461E08AE00E94E70468
:100D700061E08AE00E9415058CB580618CBD8CB560
:100D800080648CBD61E08DE00E94150561E08BE020
:100D90000E9415058091A0018F5F8093A001CFBFB5
:100DA000CF910895FC01A5A1B6A18C9192A58923AC
:100DB0008C93A5A1B6A18C9191A5892B8C930895B4
:100DC000DC019396ED91FC919497908198968C918B
:100DD000892380830895DC019396ED91FC9194978B
:100DE000908197968C91892B80830895DC01919650
:100DF000ED91FC919297908196968C9189238083B6
:100E00000895DC019196ED91FC91929790819596D1
:100E10008C91892B80830895CF92DF92EF92FF927D
:100E20001F93CF93DF93EC016A017B018DA98111A0
:100E300023C08F2D9927AA27BB278EBD0DB407FE8F
:100E4000FDCFC701AA27BB278EBD0DB407FEFDCF7E
:100E5000BB27AF2D9E2D8D2D8EBD0DB407FEFDCF72
:100E6000CEBC0DB407FEFDCFDF91CF911F91FF9057
:100E7000EF90DF90CF9008958130B1F410E2CE0171
:100E8000F7FE0FC00E940107CE010E94EB06CE01C3
:100E90000E94E006CC0CDD1CEE1CFF1C115079F703
:100EA000E3CF0E94F606F0CFEF8DF8A18F2D9927A2
:100EB000AA27BB278083CE010E94D206EF8DF8A11E
:100EC000C701AA27BB278083CE010E94D206EF8DDF
:100ED000F8A1BB27AF2D9E2D8D2D8083CE010E94C2
:100EE000D206EF8DF8A1C082CE01DF91CF911F9184
:100EF000FF90EF90DF90CF900C94D206FF920F936B
:100F00001F93CF93DF93EC018B018DA981110EC04C
:100F10001EBD0DB407FEFDCF0EBD0DB407FEFDCF07
:100F2000DF91CF911F910F91FF9008958130B1F41F
:100F300090E1F92ECE0117FF0EC00E940107CE01ED
:100F40000E94EB06CE010E94E006000F111FFA94EA
:100F5000F110F0CFE5CF0E94F606F1CFEF8DF8A1AA
:100F60001083CE010E94D206EF8DF8A10083CE013E
:100F7000DF91CF911F910F91FF900C94D2060F93A8
:100F80001F93CF93DF93EC01162F8DA9811109C018
:100F90006EBD0DB407FEFDCFDF91CF911F910F9174
:100FA0000895813099F408E0CE0117FF0CC00E942B
:100FB0000107CE010E94EB06110FCE010E94E00650
:100FC000015091F7E9CF0E94F606F3CFEF8DF8A11B
:100FD0006083CE01DF91CF911F910F910C94D206C7
:100FE000CF93DF93EC01ED8DFE8D80819CA9892349
:100FF0008083CE010E94BF07ED8DFE8D80819BA96D
:10100000892B8083DF91CF9108958F929F92AF9229
:10101000BF92CF92DF92EF92FF920F931F93CF93E5
:10102000DF93EC0189AD9AAD680F791F8BAD9CAD54
:10103000480F591F21503109260F371F4901B12C84
:10104000A12CCB01B0E0A0E0DC0199278827882AF9
:10105000992AAA2ABB2A680181E0C81AD108C40EBD
:10106000D51EF12CE12C70E060E0BA015527442731
:10107000C42AD52AE62AF72A6AE2CE010E94F0079E
:10108000B501A401CE010E940C076BE2CE010E94C3
:10109000F007B701A601CE010E940C076CE2CE0159
:1010A000DF91CF911F910F91FF90EF90DF90CF9044
:1010B000BF90AF909F908F900C94F0071F93CF93A9
:1010C000DF93EC01162FE881F9810284F385E02D8E
:1010D0000995112371F06DADCE010E94F007E881F2
:1010E000F9810688F789E02DCE01DF91CF911F911C
:1010F00009946EADF1CFAF92BF92CF92DF92EF9293
:10110000FF920F931F93CF93DF93EC0177FD38C0CD
:1011100088859985681779079CF557FD31C08A85C0
:101120009B854817590764F569017A015B01E881DD
:10113000F9810284F385E02DCE010995E881F981DA
:1011400002A4F3A5E02D01E010E021E030E0A701CA
:10115000B501CE010995B601CE010E947E07E88156
:10116000F9810688F789E02DCE01DF91CF911F919B
:101170000F91FF90EF90DF90CF90BF90AF900994C8
:10118000DF91CF911F910F91FF90EF90DF90CF9063
:10119000BF90AF9008958F929F92AF92BF92CF92DF
:1011A000DF92EF92FF920F931F93CF93DF93EC01A7
:1011B00049015701E881F98102A4F3A5E02D0995C1
:1011C0009401D8010E94212D6B017C01C114D1042E
:1011D000E104F10409F47DC08DA9811115C081E0FD
:1011E000C81AD108E108F1088FEFC816D806E8063A
:1011F000F80609F46EC0BEBC0DB407FEFDCFAEBC50
:101200000DB407FEFDCFEBCF813099F581E0C81A10
:10121000D108E108F1088FEFC816D806E806F806ED
:1012200009F457C00B2D18E0CE0107FF1CC00E9427
:101230000107CE010E94EB06CE010E94E006000FDE
:10124000115091F70A2D18E0CE0107FF0FC00E9440
:101250000107CE010E94EB06CE010E94E006000FBE
:10126000115091F7D3CF0E94F606E3CF0E94F60605
:10127000F0CFBA1016C0CC0CDD1CEE1CFF1CEF8D9D
:10128000F8A1B08281E0C81AD108E108F1088FEF17
:10129000C816D806E806F806E1F0CE010E94D2068C
:1012A000F1CF81E0C81AD108E108F1088FEFC81624
:1012B000D806E806F80669F0EF8DF8A1B082CE01F5
:1012C0000E94D206EF8DF8A1A082CE010E94D20624
:1012D000E8CFDF91CF911F910F91FF90EF90DF90BA
:1012E000CF90BF90AF909F908F9008958F929F92D4
:1012F000AF92BF92CF92DF92EF92FF920F931F9324
:10130000CF93DF935C014B016A01E90177FD52C085
:10131000DC0118968D919C91681779070CF04AC0F2
:10132000209709F447C037FF07C0C9010196C80ECE
:10133000D91ED195C195D109F50182859385C8162D
:10134000D906C4F5A6014C0F5D1F9A012150310941
:1013500037FD30C0D7FE03C0EA01D12CC12C2817BD
:1013600039071CF0EC01CC19DD09D501ED91FC9198
:101370000284F385E02DC501099578018E0121E0F5
:1013800030E0A601B401C5010E94CB08D501ED9162
:10139000FC910688F789E02DC501DF91CF911F915F
:1013A0000F91FF90EF90DF90CF90BF90AF909F9004
:1013B0008F900994DF91CF911F910F91FF90EF9043
:1013C000DF90CF90BF90AF909F908F9008958F92B5
:1013D0009F92AF92BF92CF92DF92EF92FF920F93C4
:1013E0001F93CF93DF935C016B014A01E90157FD25
:1013F00052C0DC011A968D919C91481759070CF048
:101400004AC0209709F447C037FF07C0C9010196B9
:10141000C80ED91ED195C195D109F5018085918558
:10142000C816D906C4F5A6014C0F5D1F9A012150BC
:10143000310937FD30C0D7FE03C0EA01D12CC12CE1
:10144000281739071CF0EC01CC19DD09D501ED9105
:10145000FC910284F385E02DC5010995780101E036
:1014600010E09E01A401B601C5010E94CB08D50180
:10147000ED91FC910688F789E02DC501DF91CF91B0
:101480001F910F91FF90EF90DF90CF90BF90AF90A2
:101490009F908F900994DF91CF911F910F91FF90B2
:1014A000EF90DF90CF90BF90AF909F908F90089576
:1014B0008F929F92AF92BF92CF92DF92EF92FF9264
:1014C0000F931F93CF93DF934C016B015A01E901F6
:1014D000209709F46CC00115110509F468C037FFA5
:1014E00007C0C9010196C80ED91ED195C195D10971
:1014F000F401A085B185CA16DB060CF058C017FFB1
:1015000007C0C8010196A80EB91E119501951109D1
:10151000F40182859385A816B9060CF048C0F6013F
:10152000EC0FFD1FAF014150510957FD40C0B501FF
:10153000600F711F9B012150310937FD38C0D7FE64
:1015400003C0EF01D12CC12CB7FE03C08B01B12C1D
:10155000A12C4A175B071CF0ED01CC19DD092817F7
:1015600039071CF08C010A191B09D401ED91FC917B
:101570000284F385E02DC40109959E01A501B60101
:10158000C4010E94CB08D401ED91FC910688F78933
:10159000E02DC401DF91CF911F910F91FF90EF904B
:1015A000DF90CF90BF90AF909F908F900994DF9184
:1015B000CF911F910F91FF90EF90DF90CF90BF9050
:1015C000AF909F908F900895EF92FF920F931F938B
:1015D000CF93DF9377FD32C0DC011896ED91FC913B
:1015E0006E177F075CF52115310541F137FF07C004
:1015F000F90131964E0F5F1F319521953109DC01BC
:101600001A96ED91FC914E175F07C4F4EA01C20FE0
:10161000D31FDE011197B7FD11C057FF03C09E0114
:1016200050E040E0AE17BF071CF09F01241B350BB4
:101630007801890121E030E00E94CB08DF91CF9151
:101640001F910F91FF90EF900895EF92FF920F93EB
:101650001F93CF93DF9357FD31C0DC011A96ED91B4
:10166000FC914E175F0754F52115310539F137FF0D
:1016700007C0F90131966E0F7F1F31952195310911
:10168000DC011896ED91FC916E177F07BCF4EB011D
:10169000C20FD31FDE011197B7FD10C077FF03C043
:1016A0009E0170E060E0AE17BF071CF09F01261B93
:1016B000370B780101E010E00E94CB08DF91CF9159
:1016C0001F910F91FF90EF9008958F929F92AF928C
:1016D000BF92CF92DF92EF92FF920F931F93CF931F
:1016E000DF9347012115310509F44BC001151105A0
:1016F00009F447C037FF07C0F90131966E0F7F1F0D
:10170000319521953109DC011896AD90BC906A1590
:101710007B05BCF517FF07C0F80131964E0F5F1F20
:10172000119501951109DC011A96ED91FC914E1766
:101730005F073CF56B01C20ED31EE6012197D7FD72
:1017400020C07A01E00EF11ED7011197B7FD19C034
:1017500077FF03C0960170E060E057FF03C0870188
:1017600050E040E0CA15DB051CF09501261B370B45
:10177000AE17BF071CF08F01041B150B74010E94EC
:10178000CB08DF91CF911F910F91FF90EF90DF90E9
:10179000CF90BF90AF909F908F900895EF92FF925F
:1017A0000F931F93CF93DF93EC0177FD22C08885C1
:1017B000998568177907ECF457FD1BC08A859B85CE
:1017C00048175907B4F47901E881F98102A4F3A517
:1017D000E02D01E010E021E030E0CE010995B701F5
:1017E000CE01DF91CF911F910F91FF90EF900C945C
:1017F0007E07DF91CF911F910F91FF90EF90089599
:10180000089561E0FC0184810E94E7048091A101B8
:1018100081111092A1010895FC0187A987FD06C0DE
:10182000A38DB48D9C9181A9892B8C9308958EBD35
:1018300000000DB407FEFDCF8EB508958FEF0C9418
:10184000170C0F931F93CF93DF93EC010E94A90510
:101850008B010E941E0C8F3F69F00E94A905601B3E
:10186000710B6C177D07A8F380E0DF91CF911F917A
:101870000F91089581E0F9CF8CBD9DBD0895CF9360
:10188000DF93EC018091A101811109C081E0809377
:10189000A1018091C0049091C1040E943C0C60E0C1
:1018A0008C81DF91CF910C94E7048F929F92AF923D
:1018B000BF92FF920F931F93CF93DF93EC01F62E0D
:1018C00049015A018E81882389F08F8198859C0176
:1018D0002F5F3F4F38872F838230924018F40E9449
:1018E0001E0CF3CFCE010E94010C1E82CE010E947D
:1018F0003F0C8CE291E00E94210C8F2D80640E94AD
:10190000170C08E110E0D501C401002E04C0B69503
:10191000A795979587950A94D2F70E94170C0850BF
:101920001109083F8FEF180771F785E9FF2021F0B3
:1019300028E087E8F2128FEF0E94170C10E00E9457
:101940001E0C8A8787FF04C01F3F11F01F5FF7CF6F
:10195000DF91CF911F910F91FF90BF90AF909F901B
:101960008F900895AF92BF92CF92DF92EF92FF9245
:101970000F931F93CF93DF93EC016901C801820F8E
:10198000931F8130924050F58E81882379F08881B1
:101990009981AA81BB8184179507A607B70731F4FF
:1019A0008F819885C816D90608F042C048835983AC
:1019B0006A837B838B85833039F089E0440F551F20
:1019C000661F771F8A95D1F79A01AB0161E1CE01BD
:1019D0000E94550C882389F083E08D83CE010E94FC
:1019E000010C80E0DF91CF911F910F91FF90EF905C
:1019F000DF90CF90BF90AF9008950E94A9055B0142
:101A00000E941E0C8A878F3F69F40E94A9056A19FB
:101A10007B096D327140A0F38FE08D83CE010E946F
:101A2000010CDCCF8E3F89F418861F8281E08E8303
:101A30008F8198858C159D0550F40E941E0C8F8116
:101A40009885019698878F83F3CF8DE0E6CF670165
:101A5000E00EF11E0E941E0CF60181936F01EE153F
:101A6000FF05C1F78F819885080F191F18870F830D
:101A70008985882319F001151240A0F08E818823F2
:101A800089F08F8198859C012F5F3F4F38872F8386
:101A90008230924018F40E941E0CF3CFCE010E94B7
:101AA000010C1E8281E09ECFCF92DF92EF92FF92D7
:101AB0000F93CF93DF93EC01690182E1411551054A
:101AC0006105710599F08B85833039F089E0440F09
:101AD000551F661F771F8A95D1F79A01AB0168E100
:101AE000CE010E94550C882319F084E08D832DC00F
:101AF0008EEF0E94170C76018EEFD81AF7018191B4
:101B00007F010E94170CEC14FD04C1F78FEF0E94B7
:101B1000170C8FEF0E94170C0E941E0C8A878F7182
:101B2000853071F4011116C0CE010E94010C81E0D4
:101B3000DF91CF910F91FF90EF90DF90CF900895BC
:101B400081E18D83CE010E94010CCE010E94010C27
:101B500080E0EECF88E592E00E94210C811102C066
:101B600085E1C4CF20E030E0A9016DE0CE010E9404
:101B7000550C882311F084E1B9CF0E941E0C81110D
:101B8000FACFD2CF0F934091A2015091A30160915F
:101B9000A4017091A501411551056105710599F0E8
:101BA000082F23E232E080912002909121020E94CE
:101BB000540D882349F01092A2011092A3011092B3
:101BC000A4011092A50181E00F9108950F93CF9386
:101BD000C82F80912202811105C0C1E08C2FCF91C6
:101BE0000F9108954091000150910101609102010F
:101BF000709103010C2F23E232E08091200290913A
:101C000021020E94540D811102C0C0E0E7CFCC2315
:101C100021F381E00E94C20D8823B9F310922202C1
:101C2000DDCF8F929F92AF92BF92EF92FF920F9370
:101C30001F93CF934B015C01C42F809100019091C1
:101C40000101A0910201B091030188159905AA052F
:101C5000BB0551F181E00E94E60D81110BC080E0CF
:101C6000CF911F910F91FF90EF90BF90AF909F90F9
:101C70008F90089583E2E82E82E0F82E00E012E0D3
:101C800030E020E0B501A401809120029091210272
:101C90000E94B20C882319F38092000190920101F6
:101CA000A0920201B0920301409122024C2B40937A
:101CB000220281E0D5CF8F929F92AF92BF92CF92B6
:101CC000DF92EF92FF92CF9322EC34E03093210227
:101CD00020932002882309F46DC040E060E070E0AA
:101CE000CB010E94110E81110BC080E0CF91FF90BB
:101CF000EF90DF90CF90BF90AF909F908F9008951E
:101D00008091E1038F7789F78091ED039091EE0345
:101D1000A091EF03B091F00384369105A105B105C0
:101D200020F3C090E903D090EA03E090EB03F09039
:101D3000EC03C114D104E104F104B9F240E0C7019D
:101D4000B6010E94110E882381F280912E0290919B
:101D50002F028115924049F6A0913302AA2329F25D
:101D600060913102709132026115710509F4BDCFA5
:101D700020913002222309F4B8CFA093E0042093ED
:101D8000D20490E080E030E0E1E0F0E0C82FAF0165
:101D9000082E02C0440F551F0A94E2F72417350796
:101DA00069F041E0480F01968930910579F7409339
:101DB000DB049BCFC12CD12C7601C0CF8093DB04F8
:101DC0002091390230913A0250E040E0211531056E
:101DD00041F42091470230914802409149025091CC
:101DE0004A022093D3043093D4044093D5045093F3
:101DF000D60446015701860E971EA11CB11C809285
:101E0000E1049092E204A092E304B092E404E09131
:101E10003402F0913502F093E704E093E604B0E079
:101E20000E94AE2CDC01CB01880D991DAA1DBB1DA3
:101E30008093E8049093E904A093EA04B093EB0440
:101E400025E0EE0FFF1F2A95E1F7E150FE4FEF2F3F
:101E5000FF27E6958E0F9F1FA11DB11D8093DC0407
:101E60009093DD04A093DE04B093DF0480903602EB
:101E700090903702B12CA12C8114910441F48090F0
:101E8000430290904402A0904502B0904602C81AC6
:101E9000D90AEA0AFB0AC80CD91CEA1CFB1C04C0BC
:101EA000F694E794D794C794CA95D2F7C092D70412
:101EB000D092D804E092D904F092DA0485EFC816E3
:101EC0008FE0D806E104F10428F48CE08093E50467
:101ED00081E00CCF80E125EFC2162FEFD206E1049E
:101EE000F104A0F380914F0290915002A091510211
:101EF000B09152028093E8049093E904A093EA041D
:101F0000B093EB0480E2E2CF4F925F926F927F92A8
:101F10008F929F92AF92BF92CF92DF92EF92FF92F9
:101F20000F931F93CF93DF93EC014230510561056E
:101F3000710590F480E0DF91CF911F910F91FF9098
:101F4000EF90DF90CF90BF90AF909F908F907F9059
:101F50006F905F904F90089589859A85AB85BC8579
:101F60000196A11DB11D84179507A607B70710F3A9
:101F7000CB88DC88ED88FE888F89803109F042C0EB
:101F8000BB27A72F962F852F480159012A013B0116
:101F9000C80ED91EEA1EFB1E80910001909101011E
:101FA000A0910201B0910301C816D906EA06FB060A
:101FB00099F58F898031C1F5B301A20155276627B4
:101FC0007727440F551F4D5D5D4FFA019182808246
:101FD000809122028160809322028A89823080F07F
:101FE0008D819E81AF81B8858C0D9D1DAE1DBF1D5D
:101FF0008093A2019093A301A093A401B093A501A3
:1020000081E099CFDB01CA01E7E0B695A7959795E6
:102010008795EA95D1F7B8CF40E0C701B6010E9495
:10202000110E8111C6CF86CFB301A2014F7755277C
:1020300066277727440F551F440F551F4D5D5D4F91
:10204000FA0180829182A282B382C2CF8F929F9244
:10205000AF92BF92CF92DF92EF92FF920F931F93B6
:10206000CF93DF93FC0181859285A385B48501968A
:10207000A11DB11D84179507A607B70770F480E06E
:10208000DF91CF911F910F91FF90EF90DF90CF9054
:10209000BF90AF909F908F90089583889488A58873
:1020A000B6888789803189F5BB27A72F962F852F82
:1020B000E9016A017B018F01BC01CD01680D791D29
:1020C0008A1D9B1D8090000190900101A09002014B
:1020D000B090030186169706A806B90601F5F80127
:1020E0008789803111F5DD24EE24FF24F601EE0FFF
:1020F000FF1FED5DFD4F80819181B0E0A0E08883FE
:102100009983AA83BB8381E0BBCFDB01CA01C7E00F
:10211000B695A79597958795CA95D1F7C9CF40E011
:102120000E94110E8111DBCFAACFE894C7F8DD24FD
:10213000EE24FF24F601EE0FFF1FEE0FFF1FED5DF3
:10214000FD4F80819181A281B381BF70D8CF4F9222
:102150005F926F927F92AF92BF92CF92DF92EF9297
:10216000FF920F931F93CF93DF9300D000D0CDB792
:10217000DEB78C0149835A836B837C835901C12C60
:10218000D12C7601412C82E0582E612C712C498192
:102190005A816B817C819E012F5F3F4FC8010E9455
:1021A0002610882339F1F8018585A301920104C026
:1021B000220F331F441F551F8A95D2F7DA01C90138
:1021C000C80ED91EEA1EFB1E49815A816B817C8193
:1021D0008789803111F188EF9FEFAFEFBFE048179B
:1021E00059076A077B0798F2F501C082D182E28223
:1021F000F38281E00F900F900F900F90DF91CF91BD
:102200001F910F91FF90EF90DF90CF90BF90AF9014
:102210007F906F905F904F90089588EF9FEFA0E0C0
:10222000B0E0DDCFCF93DF93FC012581222321F0A5
:1022300080E0DF91CF910895EC018091E504803139
:1022400059F582E08583178A108E118E128E809147
:10225000E6049091E704B0E0A0E025E0880F991F24
:10226000AA1FBB1F2A95D1F7838B948BA58BB68BA6
:102270008EEC94E09C8F8B8F81E08C831E821F827A
:10228000188619861A861B861C861D861E861F8642
:10229000188A198A1A8ACDCF803251F683E0858355
:1022A0004091E8045091E9046091EA047091EB04D4
:1022B000478B508F618F728F9F012D5E3F4F8EEC49
:1022C00094E00E94A7108111D3CFB2CF8F929F923A
:1022D000AF92BF92CF92DF92EF92FF920F931F9334
:1022E000CF93DF93EC018D8181110EC080E0DF91EF
:1022F000CF911F910F91FF90EF90DF90CF90BF9003
:10230000AF909F908F9008950B891C892D893E89ED
:10231000041715072607370748F34A015B01823087
:1023200031F48A869B86AC86BD8681E0E0CF81143D
:102330009104A104B10449F41E821F8218861986F3
:102340001A861B861C861D86F0CF0A851B852C8568
:102350003D85EB8DFC8D858590E00996B901A8013E
:102360004150510961097109082E04C0769567959D
:10237000579547950A94D2F775016401E1E0CE1AAA
:10238000D108E108F10804C0F694E794D794C79403
:102390008A95D2F7C416D506E606F70620F0012B7B
:1023A000022B032B11F58F89988DA98DBA8D8E8301
:1023B0009F83A887B9878E010A5F1F4FC114D1047C
:1023C000E104F10409F4ADCF4E815F816885798520
:1023D00098018B8D9C8D0E94261091E0C91AD1081E
:1023E000E108F1088111EACF81CFC41AD50AE60AC3
:1023F000F70AE1CF3F924F925F926F927F928F9256
:102400009F92AF92BF92CF92DF92EF92FF920F9383
:102410001F93CF93DF93CDB7DEB72C970FB6F89409
:10242000DEBF0FBECDBF5C01DC015B968D909C9042
:102430005C9716964D905D906D907C901997411425
:1024400051046104710409F468C0BFEF4B1A5B0AC0
:102450006B0A7B0A312CF40181859285A385B485B2
:102460009C01AD012F5F3F4F4F4F5F4F29873A8748
:102470004B875C87730162011D821E821F82188652
:10248000F40181859285A385B4852D813E814F819C
:102490005885281739074A075B0708F056C0898511
:1024A0009A85AB85BC858C159D05AE05BF0550F49E
:1024B00082E0C82ED12CE12CF12C92E0492E512C37
:1024C000612C712C9E012F5F3F4FB701A601C40103
:1024D0000E9426108823C9F189819A81AB81BC8131
:1024E000892B8A2B8B2B09F1260137019FEF491A83
:1024F000590A690A790A2D813E814F8158852F5FDB
:102500003F4F4F4F5F4F2D833E834F8358873FEFA1
:10251000C31AD30AE30AF30AB3CFF401408051800F
:10252000628073803324339496CFC414D504E604B8
:10253000F70409F70FEF1FEF2FEF3FE0B701A601F8
:10254000C4010E94840F811119C080E02C960FB63F
:10255000F894DEBF0FBECDBFDF91CF911F910F91D9
:10256000FF90EF90DF90CF90BF90AF909F908F90B3
:102570007F906F905F904F903F900895D501169691
:102580004D915D916D917C911997411551056105B2
:10259000710539F097018601C4010E94840F8823D8
:1025A000A1F2D5011696CD92DD92ED92FC9219978B
:1025B000332051F0D701C6010196A11DB11DF401D0
:1025C00080839183A283B383F5018789908DA18D48
:1025D000B28D892B8A2B8B2B39F48481C78AD08EBC
:1025E000E18EF28E80688483F50184818062848329
:1025F00081E0ACCF2F923F924F925F926F927F9289
:102600008F929F92AF92BF92CF92DF92EF92FF9202
:102610000F931F93CF93DF93EC015B012A018D8110
:10262000811115C08FEF9FEFDF91CF911F910F9117
:10263000FF90EF90DF90CF90BF90AF909F908F90E2
:102640007F906F905F904F903F902F9008958C8176
:1026500080FFE8CF0B891C892D893E894A855B85DF
:102660006C857D85C201B0E0A0E068017901C41AE3
:10267000D50AE60AF70AC816D906EA06FB0618F4D0
:102680002801441A550A42011E0126E0220E311C7F
:102690008114910409F4B3C04A855B856C857D85FE
:1026A0006A0181E0D8228B8D9C8D8A019B01E9E033
:1026B0003695279517950795EA95D1F7ED81E23084
:1026C000E1F5FC01628D738D848D958D600F711F16
:1026D000821F931F612C22E0722E6C187D088614D5
:1026E000970408F434012C8126FD04C06114F2E043
:1026F0007F0671F400910001109101012091020107
:1027000030910301061717072807390709F053C04E
:1027100040E00E94110E882309F484CFC6018D5D2C
:102720009D4FD5019C01260D371DFC012E173F073B
:1027300009F460C041914D93F9CFFC0174807A9403
:102740007022C114D10471F471100CC0452B462BBA
:10275000472B39F58F89988DA98DBA8D8E839F83EC
:10276000A887B987EB8DFC8D6E817F8188859985DF
:102770006250710981099109258504C0660F771F90
:10278000881F991F2A95D2F70685178520893189D8
:10279000600F711F821F931F670D711D811D911D99
:1027A00099CF4E815F816885798591010E942610BD
:1027B0008111D8CF37CF750183019601AB01BC01E0
:1027C00080912002909121020E94B20C882309F48A
:1027D00029CFA60CB71C8A859B85AC85BD85860D47
:1027E000971DA11DB11D8A879B87AC87BD87861861
:1027F00097084ECF281B390BA20EB31EECCFC20197
:1028000013CFCF93DF931F92CDB7DEB741E050E0F7
:10281000BE016F5F7F4F0E94FA12019731F48981E8
:1028200090E00F90DF91CF9108958FEF9FEFF9CF58
:10283000FC01818D928D009711F00C9401148FEFA3
:102840009FEF08950F931F93CF93DF93EC01898D32
:102850009A8D10E000E0009799F00E9401148C011D
:102860000F3F100769F0898D9A8DFC0142855385D1
:102870006485758541505109610971090E9466118D
:10288000C801DF91CF911F910F9108951F93CF93AE
:10289000DF93FC0125812223D1F1162FEC018481E5
:1028A00087FF2AC0668577858089918941E00E94EB
:1028B000110E882361F1EA8980E2E89FF00111247A
:1028C000ED5DFD4F309719F18D81823040F48B8999
:1028D0009C89AD89BE89848F958FA68FB78F8F898C
:1028E000988D938F828F8F89988DA98DBA8DB58B96
:1028F000A48B8C818F778C83111103C08C818F7E88
:102900008C83812FDF91CF911F910C94E60D80E095
:10291000DF91CF911F910895FF920F931F93CF9353
:10292000DF93EC018D81813041F090E080E0DF9118
:10293000CF911F910F91FF9008958C8181FFF5CF6A
:1029400082FD1BC00091200210912102C8010E944B
:102950003F0C0E941E0CF82EC8010E94010C8FEF44
:10296000F812E3CF8C8185FF1BC060E0CE010E948E
:1029700046148C818F7D8C83D8CF4B895C896D897F
:102980007E898A859B85AC85BD8584179507A607BA
:10299000B707C1F2CE010E9466118111D3CFC5CF16
:1029A0004091A2015091A3016091A4017091A501F1
:1029B000452B462B472B21F080E00E94C20DB5CF5E
:1029C00080618C832A853B85317080E092E0821B98
:1029D000930BADCFCF93DF93EC0161E00E944614DF
:1029E000882311F01D8281E0DF91CF910895FC01D1
:1029F000818D928D009719F061E00C944614089532
:102A00002F923F924F925F926F927F928F929F92FE
:102A1000AF92BF92CF92DF92EF92FF920F931F93EC
:102A2000CF93DF9300D000D01F92CDB7DEB77C01EB
:102A30005B01342E5D83DC0115968C9115978130F6
:102A400009F0CEC014962C9021FECAC022FCB4C05E
:102A5000C32CDD8022947FE027222094B22DB17018
:102A60002B2ED7011A964D915D916D917C911D97FA
:102A7000C114D10409F428C15B968D919C915C9797
:102A8000FC0174807A948A019B0169E03695279550
:102A9000179507956A95D1F770228A011170711008
:102AA00020C001151105E9F416964D915D916D91C7
:102AB0007C911997411551056105710509F099C07F
:102AC00057968D919D910D90BC91A02D0097A105D9
:102AD000B10509F0B0C0C7010E94FA11882309F4BA
:102AE0007FC080E092E0801B910B46018C159D0514
:102AF00008F44C01D7015B964D915C915C9716965A
:102B00008D919D910D90BC91A02D0297A109B109C5
:102B1000FA01258504C0880F991FAA1FBB1F2A959B
:102B2000D2F74685578560897189840F951FA61F46
:102B3000B71F9C01AD01270D311D411D511D2901FC
:102B40003A01811432E0930609F07BC080910001C4
:102B500090910101A0910201B091030184159505A6
:102B6000A605B70559F48FEF9FEFDC0180930001B4
:102B700090930101A0930201B0930301022D9501EE
:102B8000B301A20180912002909121020E94540D74
:102B9000882331F19EEFB91AC818D908F701828548
:102BA0009385A485B585880D991DA11DB11D8287CA
:102BB0009387A487B58755CFF701438954896589E1
:102BC000768982859385A485B585481759076A0754
:102BD0007B0709F43DCFC7010E946611811138CFF0
:102BE00081E090E0D70113969C938E93129780E03A
:102BF00007C09E012F5F3F4F0E942610811102C027
:102C000090E079C089819A81AB81BC81F701238DE5
:102C1000348DF901278948EF5FEF60E070E02031E3
:102C200021F048EF5FEF6FEF7FE084179507A6076D
:102C3000B70708F050CFF70186839783A087B18745
:102C400050CF0115110599F5D7011A964D915D9157
:102C50006D917C911D9753968D919D910D90BC9196
:102C6000A02D481759076A077B0708F181E00E94E9
:102C7000E60D882309F4B4CF40920001509201017F
:102C80006092020170920301809122028160809320
:102C90002202C8018D5D9D4FD5019C01280D391D73
:102CA000FC012E173F0759F04D914193FACF41E0B7
:102CB000C301B2010E94110E8111EBCF91CF281BED
:102CC000390BA20EB31E68CFF70183899489A589B9
:102CD000B68984179507A607B70738F48481438B14
:102CE000548B658B768B80688483F701848183FDA8
:102CF0001AC0832D9D810F900F900F900F900F9011
:102D0000DF91CF911F910F91FF90EF90DF90CF90C7
:102D1000BF90AF909F908F907F906F905F904F90FB
:102D20003F902F90089561E0C7010E9446148823C8
:102D300009F456CFDECFCF93DF931F92CDB7DEB726
:102D4000698341E050E0BE016F5F7F4F0E94001534
:102D50000F90DF91CF910895CF93DF93EC01E98D30
:102D6000FA8D309749F481E090E09B838A8390E06C
:102D700080E0DF91CF91089513821282898D9A8D20
:102D80000E940015E98DFA8D22813381232B59F79A
:102D9000F0CFFC0125A9211104C081A192A10C94BE
:102DA0003C0C08950F931F93CF93DF93EC018B019D
:102DB0000E94C9168FA987FD06C0EB8DFC8D80810E
:102DC0009AA989238083ED8DFE8D80819CA989231A
:102DD000808366E3CE010E94BF07ED8DFE8D80816A
:102DE0009BA9892B80838DA9F801823091F06081A5
:102DF000CE010E94BF078FA987FD06C0EB8DFC8D19
:102E0000808199A9892B8083DF91CF911F910F91A8
:102E1000089588A9882359F360817181CE010E94A9
:102E20007E07E9CFCF93DF931F92CDB7DEB7FC01CA
:102E300019826370668BDC01AD5BBF4F2C9130E073
:102E400011968C9190E0623031F06330C9F06130BE
:102E500081F040EC498332AF21AF94AF83AFBE0124
:102E60006F5F7F4FCF010E94D2160F90DF91CF91FD
:102E7000089540EA498334AF23AF92AF81AFEFCFDB
:102E800040E6F8CFCF93DF931F92CDB7DEB7FC01BA
:102E900019826370668BDC01AA5BBF4F8C91982FFF
:102EA0009B7FAF014C5B5F4F913031F493E0623018
:102EB00008F091E0DA019C939F012D5B3F4F623057
:102EC00009F44CC0633009F459C0613069F18230B3
:102ED00021F098EC843009F046C090EC9983813061
:102EE000D1F480E890E09387828791878087D90129
:102EF0008C9190E092AF81AFDA018C9190E094AF29
:102F000083AFBE016F5F7F4FCF010E94D2160F903B
:102F1000DF91CF910895843051F580EA90E0938756
:102F2000828780E590E0E1CF823019F098EA843022
:102F300061F590EA9983813091F580E890E091877E
:102F4000808793878287D9018C9190E094AF83AF7B
:102F5000DA018C9190E092AF81AFD3CF823039F01B
:102F60008430D9F298E09983813009F4BACF80EAAD
:102F700090E09387828780E890E0B7CF823019F0A5
:102F800098E6843011F490E6D5CF99838130A9F288
:102F900080EA90E09187808780E890E0D2CF84300B
:102FA000B9F780EA90E09187808780E590E0C9CF0B
:102FB000AF92BF92CF92DF92EF92FF920F931F9347
:102FC000CF93DF93BC016F5F7F4FFC0114911150D1
:102FD00008F47AC0FB01D4917B01F2E0EF0EF11C02
:102FE000FB0131960491C02FCF778CE095E00E94D1
:102FF000C9168091430587FD09C0E0912705F0912E
:103000002805808190913E0589238083E0912905E0
:10301000F0912A05808190914005892380836D2F4E
:103020008CE095E00E94BF07E0912905F0912A0508
:10303000808190913F05892B8083F701B12CA12CD1
:10304000D0E0AC16BD06F4F4809141056F018230EA
:1030500081F480913C05882361F0619171916F0149
:103060008CE095E00E947E07EFEFAE1ABE0AF601F3
:10307000E8CF8FEFC81AD80A64918CE095E00E94DF
:10308000BF07F2CF8091430587FD09C0E091270576
:10309000F0912805808190913D05892B8083B701AF
:1030A0006C0F7D1F07FF93CFEB012196FB0164910D
:1030B00070E06F3F710511F464EF71E090E080E023
:1030C0000E947605BE0183CFDF91CF911F910F91B2
:1030D000FF90EF90DF90CF90BF90AF900895CF9387
:1030E000DF93EC010E94C9168FA987FD06C0EB8D06
:1030F000FC8D80819AA989238083DF91CF910895E7
:103100000895FC016370668B8481958126813781E7
:10311000613039F0633029F09187808733872287C7
:103120000895318720879387828708952F923F9251
:103130004F925F926F927F928F929F92AF92BF92C7
:10314000CF92DF92EF92FF920F931F93CF93DF9373
:10315000CDB7DEB76A970FB6F894DEBF0FBECDBF0E
:103160009A8F898F7A8369834A01D22E18870F83B9
:103170003701BC2CDC0159962D913C915A972115B1
:10318000310509F015C118968D919C911997681712
:1031900079070CF0D7C11A968D919C914817590761
:1031A0000CF0D0C14C2C512CB6E0CB9E600D711DA3
:1031B00011247C876B87161617060CF0C3C1EA2D05
:1031C000F0E0FA87E98793E0EE0FFF1F9A95E1F7A9
:1031D000F88BEF87CF01840F951F181619060CF096
:1031E000B1C1A98DBA8D58968C91811104C0BFEAE6
:1031F000BD1508F4D394A98DBA8DED91FC9111976A
:103200000284F385E02DCD010995B5E0DB9EC00178
:103210001124E981FA81FC83EB83312C212C9C0160
:1032200028593F4F388F2F8B4A2D50E05E8B4D8BA6
:10323000EF89F88DE20DF31D44919E828D82D12C91
:10324000C12C69817A81620D731D7A8B698B842F01
:1032500090E09C8B8B8BE98DFA8DA081B18140FF32
:1032600082C0F1E0BF126FC0AF126DC01C96ED912D
:10327000FC912F813885A4014C0D5D1D69897A89E7
:10328000898D9A8D0995EB89FC89F595E7954E2FE7
:103290005FEFC51AD50A6D817E818D899E89680F81
:1032A000791F7E836D8398E0C916D10481F6AFEF54
:1032B0002A1A3A0AEB81FC81E40DF51DFC83EB83AD
:1032C000F5E02F16310409F0B3CF2F81388526158C
:1032D0003705B9F0A98DBA8DED91FC91B1E0BB1223
:1032E00057C0AB1255C069817A816B5F7F4F0088F0
:1032F000F189E02D830128E030E0A401898D9A8DC9
:103300000995A98DBA8DED91FC9111970688F789E1
:10331000E02DCD016A960FB6F894DEBF0FBECDBF8B
:10332000DF91CF911F910F91FF90EF90DF90CF90A1
:10333000BF90AF909F908F907F906F905F904F90D5
:103340003F902F9009941E96ED91FC91EF80F884A8
:1033500009851A8592014D815E816B817C81898D01
:103360009A8D099590CF2F8138852615370509F458
:103370008ACF31E0B31207C0A31205C01C96ED91AD
:10338000FC91930178CF1E96ED91FC917301E0CFF3
:103390006B857C85641975090684F785E02D7301BA
:1033A0000F8518899201A401898D9A8D0995A9CF5D
:1033B000F90134969491329745915491D91AB7E016
:1033C000DB9E400D511D1124F901259134913C8B58
:1033D0002B8BFA0125903490FA0132967490319635
:1033E0003491398B329664903196449041E04C157B
:1033F00018F04A1508F07FC0662D062C000C770BDC
:103400007C836B83842D042C000C990B9E838D830D
:10341000A98DBA8DED91FC9111970284F385E02D71
:10342000CD010995512CD12CC12CEA2DF0E0FA8761
:10343000E9872B2D30E03C872B87A401440D511DDB
:1034400047FC5A95588F4F8B69817A81660D711DA3
:1034500067FC7A957E876D877989C71608F051CF0A
:103460002C2D30E04D815E81420F531FA985BA8516
:103470004A9FC0014B9F900D5A9F900D1124FC0153
:10348000E80DF91DF88BEF87852D612C4F89588D3C
:10349000420F531F5E8B4D8B671408F050C04424BD
:1034A0004394480E877041F4C1010196EB89FC8971
:1034B000E20DF31DD4901C01D7FE19C0A98DBA8D61
:1034C000ED91FC91662D70E0B1E0BB1219C0AB121A
:1034D00017C02D853E85620F731F0484F585E02D8E
:1034E0002F8138854D895E89898D9A8D0995DD0CEE
:1034F0006394842DD1CF1E821D821C821B8288CFB3
:103500004B815C81640F751FAB85BC856A9FC001D0
:103510006B9F900D7A9F900D112469817A81680FBD
:10352000791F0684F785E02DEF80F88409851A85D8
:103530009D014F855889898D9A8D0995D8CF570C53
:10354000C3948ACF6A960FB6F894DEBF0FBECDBF84
:10355000DF91CF911F910F91FF90EF90DF90CF906F
:10356000BF90AF909F908F907F906F905F904F90A3
:103570003F902F9008958F929F92AF92CF92EF92AB
:10358000FF920F931F93CF93DF93EC01262F898D2A
:103590009A8D009709F051C06A30D1F41D861C86BF
:1035A0008D8948E0849F900111248E859F85820F2C
:1035B000931F9F878E8781E090E0DF91CF911F91CD
:1035C0000F91FF90EF90CF90AF909F908F900895C4
:1035D0006D3089F3CC88AD888F898823C1F08C85C4
:1035E0009D8536E0C39E800D911D11244885598527
:1035F0004817590764F44E855F851D861C8638E0A0
:10360000A39EC0011124840F951F9F878E87EA888F
:10361000FB88088919894E855F856C857D85CE017B
:103620000E9496182C898C859D8546E0249F800DEC
:10363000911D11249D878C87BECF6A3069F41D8649
:103640001C86FC013896E4912D898E859F85E29F2A
:10365000800D911D1124ADCF6D3009F4ACCFFC016C
:1036600034963491631708F4A6CF3296E491E617A6
:1036700008F4A1CFFC01329685909490462F431B0D
:10368000342F47E0349F800C911C1124F4013296B2
:1036900034913196E4913323A9F1EE2399F1CC884A
:1036A000F4013596E491AD884F89442301F10E2E43
:1036B000000CFF0BE30FF11DCE9EA001CF9E500D1D
:1036C00011246C857D85460F571F688579856417A1
:1036D00075076CF44E855F851D861C86FC01389647
:1036E000E491AE9E400D511D11245F874E87EA88FC
:1036F000FB88088919894E855F856C857D85CE019B
:103700000E949618F4013496E4912C898C859D854D
:10371000E29F800D911D11248DCF6F927F928F9229
:103720009F92AF92BF92CF92DF92EF92FF920F9350
:103730001F93CF93DF93EC016B015A0139014801CC
:10374000E881F9810284F385E02D0995E881F9810A
:103750000288F389E02D87019301A501B601CE010E
:103760000995A501480D591D41505109E881F9817C
:103770000288F389E02D9301B601CE010995E88115
:10378000F9810088F189E02D9401A501B601CE01EF
:103790000995C60CD71CB60161507109E881F98101
:1037A0000088F189E02D9401A501CE010995E881F9
:1037B000F9810688F789E02DCE01DF91CF911F9125
:1037C0000F91FF90EF90DF90CF90BF90AF909F90C0
:1037D0008F907F906F9009946F927F928F929F92BB
:1037E000AF92BF92CF92DF92EF92FF920F931F930F
:1037F000CF93DF935C01EB016A0149013801870136
:10380000DC01ED91FC916217730719F564167506DA
:103810002CF0962D872D3A01C92ED82E9601261907
:1038200037092F5F3F4F048CF58DE02DA301BE01BA
:10383000C5010995DF91CF911F910F91FF90EF90F6
:10384000DF90CF90BF90AF909F908F907F906F90C0
:1038500008954615570591F42617370724F0892D4A
:103860004B01C22FD82F9E01281939092F5F3F4FD6
:10387000068CF78DE02DA601B401DACF0284F38522
:10388000E02D0995D501ED91FC910488F589E02D95
:1038900083019401A601BE01C5010995D501ED91F1
:1038A000FC910688F789E02DC501DF91CF911F912A
:1038B0000F91FF90EF90DF90CF90BF90AF909F90CF
:1038C0008F907F906F900994EF92FF920F931F93C8
:1038D000DC011A960D911C911B9718962D913C9125
:1038E0001997ED91FC9100A0F1A1E02D7B0150E032
:1038F00040E070E060E009951F910F91FF90EF901C
:1039000008954F925F926F927F928F929F92AF92A3
:10391000BF92CF92DF92EF92FF920F931F93CF93BC
:10392000DF936C012B015A0139014801DC01ED9153
:10393000FC910284F385E02D0995E201640C751C6D
:10394000D601ED91FC91C615D7055CF40088F1898C
:10395000E02D87019401A501BE01C60109952196BC
:10396000EFCF0688F789E02DC601DF91CF911F9137
:103970000F91FF90EF90DF90CF90BF90AF909F900E
:103980008F907F906F905F904F9009948F929F924D
:10399000AF92BF92CF92DF92EF92FF920F931F935D
:1039A000CF93DF93EC015B014A016901E881F98162
:1039B0000284F385E02D099595012C0D3D1D2150C4
:1039C0003109E881F9810488F589E02D78018401C5
:1039D000A401B501CE010995E881F9810688F7892E
:1039E000E02DCE01DF91CF911F910F91FF90EF90CD
:1039F000DF90CF90BF90AF909F908F9009948F925F
:103A00009F92AF92BF92CF92DF92EF92FF920F936D
:103A10001F93CF93DF93EC015B014A0169017801A9
:103A2000E881F9810284F385E02D0995C80CD91C41
:103A3000860101501109E881F9810488F589E02D9A
:103A40009501A401B501CE010995E881F9810688A7
:103A5000F789E02DCE01DF91CF911F910F91FF905B
:103A6000EF90DF90CF90BF90AF909F908F90099490
:103A7000EF92FF920F931F93DC01ED91FC9100A058
:103A8000F1A1E02D09951F910F91FF90EF900895FE
:103A90000F931F93DC01ED91FC91068CF78DE02DC7
:103AA00009951F910F9108950F931F93DC01ED91DC
:103AB000FC91048CF58DE02D09951F910F910895CF
:103AC000DC01ED91FC910084F185E02D09942F92A9
:103AD0003F924F925F926F927F928F929F92AF929E
:103AE000BF92CF92DF92EF92FF920F931F93CF93EB
:103AF000DF9300D000D000D0CDB7DEB73C016A0123
:103B00003E832D83FC82EB825801A41AB50AB7FECE
:103B100003C0B194A194B1088D809E80861A970A43
:103B200097FE03C09194819491088A149B045CF0E1
:103B3000902F812F0D811E819D838E839C2D8D2D35
:103B40006B01692F782F0C151D055CF09D818E810E
:103B50007E836D83692F782F902F812F8601C92E48
:103B6000D82E1601201A310A2B012D813E81421ACE
:103B7000530A57FE03C0519441945108710137FE16
:103B800003C03FEFE31AF30AF594E7948D819E8119
:103B9000861797075CF5A1E0B0E0BA83A983C01649
:103BA000D1064CF1D301ED91FC910484F585E02D13
:103BB0002B813C81A8016D817E818A149B041CF0BD
:103BC0004D815E81B801C3010995E418F508F7FE3F
:103BD0000AC02D813E8189819A81280F391F3E8339
:103BE0002D83E20CF31C0F5F1F4FD9CF2FEF3FEF58
:103BF0003A832983D4CF26960FB6F894DEBF0FBE42
:103C0000CDBFDF91CF911F910F91FF90EF90DF908B
:103C1000CF90BF90AF909F908F907F906F905F906C
:103C20004F903F902F9008950F931F93CF93DF9362
:103C300000D000D0CDB7DEB78C010E941814898364
:103C4000C8010E9418148A83C8010E9418148B832B
:103C5000C8010E9418148C8369817A818B819C81B0
:103C60000F900F900F900F90DF91CF911F910F91B8
:103C700008950F931F93CF93DF9300D0CDB7DEB796
:103C80008C010E9418148983C8010E9418148A8329
:103C900089819A810F900F90DF91CF911F910F91A1
:103CA0000895CF93DF93EC01FB01828193819B8385
:103CB0008A8384819581A681B7818C839D83AE831D
:103CC000BF8380859185A285B38588879987AA87D8
:103CD000BB878EE091E0998388838DE03C96DE017E
:103CE0001C9601900D928A95E1F7FB01818D928DD2
:103CF0009A8F898FDF91CF910895089590E080E0A9
:103D00000895FC0101900020E9F73197AF01481BAD
:103D1000590BBC0183E294E00C9491038AE691E094
:103D20000C94811E8F929F92AF92BF920F931F931C
:103D3000CF93DF93CDB7DEB7A1970FB6F894DEBF70
:103D40000FBECDBF19A2423008F44AE08E010F5DCC
:103D50001F4F842E912CB12CA12CA50194010E94FF
:103D6000FF2CE62FB901CA01EA30F4F4E05DD80176
:103D7000EE938D01232B242B252B79F790E080E007
:103D8000109719F0CD010E94811EA1960FB6F894EC
:103D9000DEBF0FBECDBFDF91CF911F910F91BF90BE
:103DA000AF909F908F900895E95CE1CFCF93DF9320
:103DB0000E94811EEC010E948E1E8C0F9D1FDF91C0
:103DC000CF910895CF93DF934AE00E94921EEC01B9
:103DD0000E948E1E8C0F9D1FDF91CF9108950F932F
:103DE0001F93CF93DF93EC0180E2689FF0011124D1
:103DF000ED5DFD4F6A8B8091000190910101A091D2
:103E00000201B09103018E879F87A88BB98B04892B
:103E1000158930E020E09801112700270F8B188FBB
:103E2000298F3A8F828D938DB0E0A0E0AC01BD0167
:103E3000402B512B622B732B4F8B588F698F7A8FAE
:103E400083858871A9F4848D958DA68DB78D8B8B14
:103E50009C8BAD8BBE8B81E08D8381E08C831E8239
:103E60001F82188619861A861B861C861D8603C02B
:103E7000803131F080E0DF91CF911F910F91089553
:103E80009E012D5E3F4F8B8D9C8D0E94A710882335
:103E900089F384E0E1CFAF92BF92CF92DF92EF92AD
:103EA000FF920F931F93CF93DF93CDB7DEB72B977E
:103EB0000FB6F894DEBF0FBECDBF6C01FE01319688
:103EC000CE010C967F0120E22193E817F907E1F774
:103ED000DA0120E037E09D91B92E9923A9F19E32B5
:103EE000B9F43A3091F480E02B960FB6F894DEBF27
:103EF0000FBECDBFDF91CF911F910F91FF90EF903B
:103F0000DF90CF90BF90AF90089528E03AE0E3CFE4
:103F1000EAE8F6E08491882321F031969813FACFED
:103F2000E2CF321700F38FED890F8E35E0F68FE97F
:103F3000890F8A3118F440EEB42EB90EF701E20F62
:103F4000F11DB0822F5FC7CF8981803261F28B0172
:103F5000FB01838D948DF601948F838FFB01168274
:103F60001782108611861286138614861586F8012C
:103F700082859385A485B585438954896589768929
:103F800084179507A607B70708F0ADCF25E0B695CB
:103F9000A795979587952A95D1F7F82FFF70AF2EA3
:103FA000F8018581823008F49ECFC8010E94011477
:103FB00097FD99CFF80182859385A485B5854F96A5
:103FC000A11DB11D82879387A487B587F0E2AF9EBC
:103FD000B00111246D5D7D4F6115710509F483CF2A
:103FE000FB018081882309F1853E19F4B11032C0AC
:103FF0001EC04BE050E0C7010E94252F892B09F01D
:10400000B6CF6A2DC6012B960FB6F894DEBF0FBE51
:10401000CDBFDF91CF911F910F91FF90EF90DF9077
:10402000CF90BF90AF900C94EF1EB1105CCFF60113
:10403000A28A8091000190910101A0910201B091AA
:10404000030186879787A08BB18BFB018081882332
:1040500009F449CFBB24B3948ACFFC0180819181BC
:10406000009711F00C94D22D0895CF93DF93EC01BB
:10407000898D9A8D009741F00E94EA14898D9A8D5E
:104080000E94D22D1A8E198EDF91CF9108950E9431
:10409000182FEF92FF920F931F93CF93DF93EC01B2
:1040A0007B018A0188819981009729F02A813B81CF
:1040B0002417350788F4B8016F5F7F4F0E945B2E8D
:1040C000009791F0998388831B830A832C813D811B
:1040D000232B11F4FC0110821D830C83B70188810E
:1040E00099810E94462F0CC088819981009711F018
:1040F0000E94D22D198218821D821C821B821A8274
:10410000CE01DF91CF911F910F91FF90EF90089515
:10411000FC011182108213821282158214826115B1
:10412000710551F0FB0101900020E9F73197AF01D3
:10413000461B570B0C94492008951F93CF93DF9390
:1041400085ED8093BC008091A9019091AA01A09176
:10415000AB01B091AC010796A11DB11D23E0B6954E
:10416000A795979587952A95D1F72091BC0024FDB6
:1041700003C01092F10152C04091A9015091AA01CF
:104180006091AB017091AC01452B462B472B69F335
:104190000097A105B10541F025E32A95F1F700004C
:1041A0000197A109B109E1CF8091A801C1E0C093B5
:1041B000A701882399F1D091B8001091BA0080919D
:1041C000BC008A7B8093BC0060E082E10E94E7042F
:1041D00060E083E10E94E7041092F101C093F301D3
:1041E0001092F20161E082E10E94E70461E083E164
:1041F0000E94E7048091B9008E7F8093B90080917E
:10420000B9008D7F8093B90088E48093B80085E47D
:104210008093BC001093BA00D093B800DF91CF9187
:104220001F910895EF92FF920F931F93CF93DF9307
:10423000EC017B018A011B821A8288EE93E0A0E0E8
:10424000B0E08C839D83AE83BF838EE091E0998341
:1042500088838DE190E00E94362D9A8F898F009798
:1042600079F02DE1F701DC0101900D922A95E1F73B
:104270004CE050E0B801CE010C960E944D2F188EF4
:10428000DF91CF911F910F91FF90EF900895CF9202
:10429000DF92EF92FF920F931F93CF93DF93CDB7EF
:1042A000DEB7C756D1090FB6F894DEBF0FBECDBF3B
:1042B0008C017B01DB015996CD90DC90F601858164
:1042C000823008F499C082859385A485B5858F7165
:1042D0009927AA27BB27892B8A2B8B2B09F08CC007
:1042E00040E250E0BE016F5F7F4FC6010E94FA12AC
:1042F000803209F081C08981882309F47DC0853E20
:1043000079F38E3269F38C8583FDEACF22961FAE56
:104310001EAE229782E391E09FAF8EAF24961FAE30
:104320002497BE016F5F7F4FE0E080E02EE2DB016B
:104330009D91BD019032A1F0883049F44BE550E0E9
:104340004C0F5D1F4E0F511DDA012C93EF5F4BE5B3
:1043500050E04C0F5D1F4E0F511DDA019C93EF5F33
:104360008F5F8B3021F78BE590E08C0F9D1F8E0FB8
:10437000911DFC011082D70159966D917C91AE017F
:10438000455A5F4FCE01CE960E944B1F882309F1FC
:10439000BE01625C7F4FCE0181960E940606AE018F
:1043A000455A5F4FBE016F5D7F4FC8010E941221C9
:1043B000C801C959DF4F0FB6F894DEBF0FBECDBF9D
:1043C000DF91CF911F910F91FF90EF90DF90CF90F1
:1043D0000895F8011382128288EE93E0A0E0B0E025
:1043E00084839583A683B7838EE091E09183808355
:1043F000128E118E1486DCCFD80113961C921E9259
:10440000129788EE93E0A0E0B0E0F801E9CFAF9218
:10441000BF92CF92DF92EF92FF921F93CF93DF93E1
:10442000CDB7DEB7E6970FB6F894DEBF0FBECDBFAF
:104430006C017B015B018FEFA81AB80AB601CE01AF
:1044400001960E944721EA8DFB8D3097F1F185811D
:104450008823D9F110E01E151F042CF489E00E9476
:104460007E041F5FF8CFCE010D960E94811EEA8D5B
:10447000FB8D3097C1F085818230A8F08DE691E008
:104480000E94D61EBE016F5F7F4FCE014C960E94E8
:10449000511EB501CE014C960E940722CE01019615
:1044A0000E943520CBCF8FE691E00E94811EEA8DDD
:1044B000FB8D60E070E0CB01309721F06389748957
:1044C000858996890E94E21EE9CFE6960FB6F89498
:1044D000DEBF0FBECDBFDF91CF911F91FF90EF9058
:1044E000DF90CF90BF90AF9008952F923F924F9260
:1044F0005F926F927F928F929F92AF92BF92CF9274
:10450000DF92EF92FF920F931F93CF93DF93CDB77C
:10451000DEB7C656D1090FB6F894DEBF0FBECDBFC9
:104520006C015B0119A218A282E391E09F8F8E8F2C
:104530001BA21C821B829A8389831E824E018EE1FC
:10454000880E911CC4010E94121175018E010F5F2B
:104550001F4F240118016FE270E0C7010E943B2F3A
:10456000009709F45CC0F70120812F3271F4FFEF4E
:10457000EF1AFF0A902F812F8201492E582E942D79
:10458000852D2801092F182FE6CF8E198D3008F0C0
:104590008CE0682E712CA301B701CE01885A9F4F81
:1045A0000E944D2FE8E5F0E0EC0FFD1FE60DF71D32
:1045B0001082C8010E94EA14F8018581882301F164
:1045C0001EAE1DAE82E391E09CAF8BAF21961FAE75
:1045D0002197A796EEADFFADA797AE0EBF1EF501D2
:1045E0008081811129C0BE01655C7F4FC1010E949D
:1045F00006064DE651E0B101C6010E9412213AC003
:10460000AE01485A5F4FB201C8010E944B1F882378
:10461000B9F2E60CF71CC2010E94EA14B0CFC70140
:104620008A199B09A7969FAF8EAFA797B201CE01BB
:10463000CB960E940606CDCF19A218A282E391E084
:104640009F8F8E8F1BA221968FAD219781112DC038
:10465000F6011382128288EE93E0A0E0B0E084833A
:104660009583A683B7838EE091E091838083128E39
:10467000118E1486C601CA59DF4F0FB6F894DEBFFB
:104680000FBECDBFDF91CF911F910F91FF90EF90A3
:10469000DF90CF90BF90AF909F908F907F906F9062
:1046A0005F904F903F902F900895A501BE01655CEB
:1046B0007F4FC4010E944B1F882351F2CE01CB963D
:1046C0000E94EA14B401C1010E940606A50193CF1D
:1046D000CF92DF92EF92FF920F931F93CF93DF93CE
:1046E000EC016A017B01C114D104E104F10439F445
:1046F000C12C28E4D22E28EEE22EFF24F394FE01F2
:10470000FF96C082D182E282F38281E28DAF80E2A5
:104710008EAF369610818FA987FD07C061E00E9499
:10472000150561E08FA90E94E70461E088AD0E9451
:10473000150561E088AD0E94E7048DA9811151C083
:1047400040E052E16AE770E0C416D506E606F706D7
:1047500040F476956795579547958F5F8630A1F71A
:1047600087E0212F2C702065982F9695922B99A386
:10477000809581708AA3812F90E0B0E0A0E08BA3A8
:104780009CA3ADA3BEA30E949C068EA987FD75C005
:1047900061E00E94150561E08EA90E94E70464E6CD
:1047A00070E080E090E00E94760560E08EA90E94B3
:1047B000E70464E670E080E090E00E94760561E046
:1047C0008EA90E94E70468EC70E080E090E0DF9141
:1047D000CF911F910F91FF90EF90DF90CF900C94AD
:1047E000760508EB16E0F12C8130B9F461E08AA57A
:1047F0000E94150560E08AA50E94E70461E08CA58F
:104800000E94150560E08CA50E94E7048BA587FD3A
:10481000BCCF60E00E941505B8CFF8018491E82F65
:10482000F0E0EE0FFF1FE255F94F859194912F8D27
:1048300038A12817390741F461E08F2D0E94150532
:1048400060E08F2D0E94E704F3940F5F1F4FF4E1A7
:10485000FF12E3CF61E08EA50E94150561E08EA5F1
:104860000E94E7048FA587FD90CF61E00E941505A7
:1048700061E08FA50E94E70488CFDF91CF911F915F
:104880000F91FF90EF90DF90CF9008951F920F92BD
:104890000FB60F9211242F933F934F935F936F9313
:1048A0007F938F939F93AF93BF93EF93FF9383E295
:1048B00094E00E940F04FF91EF91BF91AF919F91FF
:1048C0008F917F916F915F914F913F912F910F90B9
:1048D0000FBE0F901F9018951F920F920FB60F9258
:1048E00011242F938F939F93EF93FF93E0913304C1
:1048F000F09134048081E0913904F0913A0482FD12
:104900001BC0908180913C048F5F8F7320913D0488
:10491000821741F0E0913C04F0E0ED5DFB4F958F94
:1049200080933C04FF91EF919F918F912F910F9075
:104930000FBE0F901F9018958081F4CF1F920F9299
:104940000FB60F9211242F933F938F939F93AF93A2
:10495000BF938091180290911902A0911A02B09110
:104960001B023091170223E0230F2D3758F50196D3
:10497000A11DB11D20931702809318029093190274
:10498000A0931A02B0931B0280911C0290911D0209
:10499000A0911E02B0911F020196A11DB11D80932E
:1049A0001C0290931D02A0931E02B0931F02BF91A0
:1049B000AF919F918F913F912F910F900FBE0F90CC
:1049C0001F90189526E8230F0296A11DB11DD2CF86
:1049D0001F920F920FB60F9211242F933F934F9374
:1049E0005F936F937F938F939F93AF93BF93EF9357
:1049F000FF938091B900887F803609F44AC0F0F5B2
:104A0000883209F4A5C018F5803109F499C0B8F4CA
:104A1000882309F4F5C0883009F492C0FF91EF9122
:104A2000BF91AF919F918F917F916F915F914F91C6
:104A30003F912F910F900FBE0F901F9018958831C6
:104A400009F486C0803251F78093F00114C080349D
:104A500009F49BC040F48033B9F38833F9F68093AE
:104A6000F00185ECAEC0803509F483C0883509F4C7
:104A700094C0883499F60E949D20D0CF883909F4DB
:104A80008AC038F5883729F050F4883611F080371D
:104A900029F683E08093F1011092EF0155C0883828
:104AA00009F479C0803919F0803809F0B7CF8091C6
:104AB000EF01803208F06FC0E091EF0181E08E0FCE
:104AC0008093EF018091BB00F0E0E153FE4F8083C3
:104AD0003BC0803B39F0D0F4803A09F477C0883A83
:104AE00009F09CCF84E08093F1011092CE011092E6
:104AF000CD01F0E0E0E009958091CD0181110FC07A
:104B000081E08093CD011092AD0109C0803C09F491
:104B1000A8CF883C09F4A5CF883B09F07FCFE0916E
:104B2000CE0181E08E0F8093CE01F0E0E355FE4F81
:104B300080818093BB009091CE018091CD0129C0EE
:104B4000809116028093BB0085EC8093BC0066CFF9
:104B50009091150280911402981758F5E091150272
:104B600081E08E0F80931502F0E0EC50FE4F8081C3
:104B7000E9CFE091150281E08E0F809315028091BC
:104B8000BB00F0E0EC50FE4F8083909115028091C5
:104B900014029817C8F285E8D8CFE091150281E099
:104BA0008E0F809315028091BB00F0E0EC50FE4F19
:104BB00080838091F30181115ECF81E08093F201C7
:104BC00084EA8093BC001092F10128CF85EC809399
:104BD000BC001092F1018091EF01803230F4E0913D
:104BE000EF01F0E0E153FE4F10826091EF0170E0C1
:104BF0008FEC91E0F0E0E0E009951092EF010ECF2C
:104C00001092F00138CFE3E2F4E01382128288EED2
:104C100093E0A0E0B0E084839583A683B78380E22D
:104C200091E09183808385EC90E09587848784EC84
:104C300090E09787868780EC90E0918B808B81EC69
:104C400090E0938B828B82EC90E0958B848B86EC4A
:104C500090E0978B868B118E128E138E148EE0EC63
:104C6000F4E080E580831182E2ECF4E015821682A4
:104C70001186138682E090E0A0E0B0E084879587FB
:104C8000A687B78713A215A614A682E391E093A77F
:104C900082A717A6ACE0B5E013961C921E9212975D
:104CA00020E830E015963C932E93149780EA90E02C
:104CB00017969C938E93169719963C932E9318975C
:104CC0001B969C938E931A9756961C9256971D96F8
:104CD0001C921E921C971F961C921E921E9781E09A
:104CE00055968C93559754968C9354972FEF3FEF8E
:104CF00053963C932E93529751963C932E935097F4
:104D000057968C93579758961C9258975A961C9280
:104D10001E925997D5961C92D59785E0D6968C937E
:104D2000D69786E0D7968C93D79787E0D8968C93C2
:104D3000D897DA961C921E92D997DC961C921E92F6
:104D4000DB97DD961C92DD97DE961C92DE97109223
:104D50004B0510924C0510924D0510924E058BE0BC
:104D600095E090969C938E935F97EFEBF6E0E4913D
:104D7000F0E0EE0FFF1FE255F94F859194915E969A
:104D80009C938E935D97E1EAF6E08491D3968C93A1
:104D9000D397EEEBF6E0E491F0E0EE0FFF1FE25563
:104DA000F94F259134915C963C932E935B97E0EA02
:104DB000F6E0E491D196EC93D197E095D296EC93FE
:104DC000D297E82FE095D496EC93D49710924F05A4
:104DD00010925005109251058EE391E08D939C93B3
:104DE0000895CF93DF93CDB7DEB7CC5AD1090FB674
:104DF000F894DEBF0FBECDBF789484B5826084BDC9
:104E000084B5816084BD85B5826085BD85B58160CE
:104E100085BD80916E00816080936E00109281004C
:104E20008091810082608093810080918100816007
:104E300080938100809180008160809380008091C8
:104E4000B10084608093B1008091B0008160809354
:104E5000B00080917A00846080937A0080917A001B
:104E6000826080937A0080917A00816080937A00DA
:104E700080917A00806880937A001092C100E0915E
:104E80003304F091340412E01083E0912F04F09188
:104E900030041082E0913104F09132048FEC808371
:104EA00010923B04E0913704F091380486E080834F
:104EB000E0913504F0913604808180618083E09137
:104EC0003504F0913604808188608083E091350458
:104ED000F0913604808180688083E0913504F09100
:104EE000360480818F7D808361E086E00E94150515
:104EF00061E086E00E94E70462E082E00E9415051E
:104F000040E050E0BA018CE095E00E9468238AEA14
:104F100095E00E94D8178DE995E00E94D81782E7A6
:104F200095E00E94D81780EC8983BE016F5F7F4FA8
:104F30008CE095E00E94D2161093520560E08CE060
:104F400095E00E9442176FE170E08CE095E00E94CE
:104F5000641C82E791E00E94811E8091F104882305
:104F600021F08CEE94E00E94EA141092CD0410928D
:104F7000CB041092C8041092C7048AE08093C60440
:104F80000E94A9058B0161E08091C6040E9415056D
:104F900061E08091C6040E94E7040E949C0682E5BD
:104FA0008093C0041092C1048091C0049091C10408
:104FB0000E943C0CEAE0FE2E8FEF0E94170CFA9440
:104FC000F110FACF82EC94E00E943F0C20E030E038
:104FD000A90160E082EC94E00E94550CF82E8093C9
:104FE000CC0421E0821799F00E94A905601B710B87
:104FF000613D774058F381E08093C70482EC94E0F0
:105000000E94010C8EE891E00E94D61EFFCF2AEA92
:1050100031E040E050E068E082EC94E00E94550C02
:1050200082FF2AC0F092CD048091CD04C12CD12CF6
:105030007601823029F4C12CD12CE12C60E4F62ECB
:1050400020E030E0A90167E382EC94E00E94550C77
:10505000A701960169E282EC94E00E94550C8093CE
:10506000CC048823D1F00E94A905601B710B613D1F
:10507000774030F388E0C0CF74E0F72E0E941E0C1A
:105080008093CC04FA94F110F9CF8A3A11F082E0BF
:10509000B3CF82E08093CD04C7CF8091CD0482301E
:1050A000D1F420E030E0A9016AE382EC94E00E94B0
:1050B000550C882311F086E09FCF0E941E0C807C47
:1050C000803C19F483E08093CD040E941E0C0E9462
:1050D0001E0C0E941E0C82EC94E00E94010C80E5E4
:1050E0008093C0041092C10481E00E945B0E88236B
:1050F00009F45DC08CEE94E00E941211882309F43B
:1051000081CF8AE891E00E94D61E1E015DE3250E44
:10511000311C6DE671E0C1010E947522B101CE0122
:1051200001960E94511E70E060E0CE0101960E943F
:105130000722C1010E943520C1014996C555DF4FA4
:1051400099838883CB5AD040A8E5B0E0AC0FBD1F4F
:105150001C96CF55DF4FB983A883C15AD0406DE666
:1051600071E0CE018D589F4F0E947522BE016D588F
:105170007F4FCE01885A9F4F0E944721E396EEADA4
:10518000FFADE397309719F08581811117C0CE01EB
:105190008D589F4F0E94352080E090E0892BF9F2D6
:1051A0000E94FB038823D9F20E940000CDCF80E04B
:1051B0000E945B0E882309F425CF9CCFCF55DF4F8B
:1051C00068817981C15AD040CE0101960E94882021
:1051D0000D81CE0101960E942D20CF55DF4F6881B1
:1051E0007981C15AD040CE0101960E948820045096
:1051F000110BCD80DE80C016D10628F4902F812FB0
:105200008601C92ED82E61E771E0CE0182579F4FEB
:105210000E948820ED80FE800E151F0528F5CE1413
:10522000DF0408F47601E981FA81EE0DFF1DD080DC
:10523000108269817A81600F711F6115710509F40F
:1052400009C1FB0101900020E9F73197AF01461B2E
:10525000570BCE0182579F4F0E94492089819A8126
:10526000E80EF91EF701D082CE0101960E942D2092
:1052700066E971E0CE0101960E948820CE56DF4F8C
:1052800088819981C259D0402D813E818217930730
:1052900011F5892B09F4FBC0C257DF4FE880F98074
:1052A000CE58D04009811A81D7018D917D01882384
:1052B00009F4EDC0082E000C990B0E941D2F6C0103
:1052C000F80181918F01082E000C990B0E941D2F6F
:1052D000C816D90649F310E0CE0101960E942D2090
:1052E000112309F486C021961FAE1EAE219788EEC9
:1052F00093E0A0E0B0E025968CAF9DAFAEAFBFAF1E
:1053000025978EE091E09EAF8DAF68961FAE1EAEE2
:1053100068972A961FAE2A970E94A905CD55DF4FA0
:10532000688379838A839B83C35AD0408091140514
:1053300090911505181619060CF05BC080911605A2
:1053400090911705892B09F454C00E948E1E8CE59C
:1053500096E00E94830408E510E00C0F1D1F045F17
:105360001F4FC8010E94811E87E20E947E040E9496
:105370008E1EB801CE0101960E9475228B819C8100
:1053800021969FAF8EAF21978D819E81AF81B88589
:1053900025968CAF9DAFAEAFBFAF259789859A8517
:1053A000AB85BC8529968CAF9DAFAEAFBFAF2997BB
:1053B000DE011D96EDE3F0E0EC0FFD1F3C968D91B4
:1053C0008193C555DF4F28813981CB5AD040E217F0
:1053D000F307A9F7EA8DFB8D6896FFAFEEAF6897EC
:1053E000309719F08581811154C08DE496E00E94B8
:1053F0008304CE01885A9F4F0E94352064EF71E0EC
:1054000080E090E00E94760508E716E09CE9E92E2E
:1054100096E0F92E2AEBC22E26E0D22EF8018491D6
:10542000F701B490F601A490AA2071F081110E94B6
:10543000BE04EA2DF0E0EE0FFF1FE459F94FA591ED
:10544000B4918C91B82251F7CE0182579F4F0E94A0
:105450002D208CCEC257DF4F88819981CE58D04005
:10546000009711F00E94D22DC257DF4F1982188287
:10547000CE58D040CE56DF4F19821882C259D04044
:10548000C057DF4F19821882C059D040E7CE11E0D3
:1054900023CFB101CE0101960E94511ECE0101968B
:1054A0000E94391E82349D4469F010E0C1010E94BF
:1054B000352011119ECF85EE95E00E9483040E9455
:1054C0008E1E97CF81E496E00E948304B101CE0145
:1054D00001960E94511ECE0101960E94141E0E9448
:1054E000E21EB101CE0101960E94511ECE0101962D
:1054F0000E94141EB101CE0101960E94511ECE01E0
:1055000001960E94141EC856DF4F688379838A83F0
:105510009B83C859D04082E396E00E948304C8561A
:10552000DF4F688179818A819B81C859D0400E9470
:10553000E21E84E296E00E948304B101CE0101964E
:105540000E94511ECE0101960E94141E0E94E21E6E
:10555000B101CE0101960E94511ECE0101960E941A
:10556000141E4B01B101CE0101960E94511ECE01C5
:1055700001960E94141E2B01B101CE0101960E94DA
:10558000511ECE0101960E94391E019709F08DCF60
:10559000B101CE0101960E94511ECE0101960E94DA
:1055A000391E182F88E196E00E948304612F70E075
:1055B00090E080E04AE00E94921E0E948E1E183108
:1055C00009F073CFB101CE0101960E94511ECE01A8
:1055D00001960E94141E672B682B692B09F065CF7A
:1055E000CC56DF4F99828882C459D0408BE096E038
:1055F0000E9483046401092C000CEE08FF084AE0B5
:10560000C701B601F7FE0BC08DE20E947E0466273B
:105610007727CB016C197D098E099F094AE00E940A
:10562000921E820188E70E947E046201052C000C14
:10563000EE08FF084AE0C701B601F7FE0BC08DE295
:105640000E947E0466277727CB016C197D098E099D
:105650009F094AE00E94921E0E948E1E94012F5FB5
:105660003F4FC901880F991F820F931FAC014C7FD8
:10567000C456DF4F59834883CC59D040CA01092E04
:10568000000CAA0BBB0BC955DF4F88839983AA83F3
:10569000BB83C75AD04017FF24C100271127041924
:1056A0001509C056DF4F1882C05AD040A09114058A
:1056B000B0911505CA56DF4FB983A883C659D040AB
:1056C000CC56DF4FE881F981C459D040EA17FB0777
:1056D00034F4CA56DF4F99828882C659D040980167
:1056E00021503109C256DF4F39832883CE59D0402B
:1056F000C0901605D09017052C153D0508F46801DB
:105700008CE095E00E946F188601CA56DF4F288111
:105710003981C659D04050E040E070E060E08CE054
:1057200095E00E940508C856DF4F488059806A807E
:105730007B80C859D040F12CE12C3CE3CC56DF4FA4
:105740003883C459D040EC14FD040CF0E8C0C056B6
:10575000DF4F4881C05AD040530142014423E1F059
:10576000C256DF4F28813981CE59D0402E193F09CA
:10577000C456DF4FA881B981CC59D0400E94212D59
:10578000C856DF4F88809980AA80BB80C859D04016
:10579000860E971EA81EB91E6896EEADFFAD6897DF
:1057A0008FEF9FEFDC01309721F082859385A485F0
:1057B000B58588169906AA06BB06A9F08CE095E087
:1057C0000E940C0C68968EAD9FAD6897009709F407
:1057D0008FC0B501A4010E9466115CE3CC56DF4F77
:1057E0005883C459D040B12CA12CCA56DF4FA88190
:1057F000B981C659D040AA16BB060CF080C0CC5661
:10580000DF4FB881C459D040BC33B0F068968EAD3C
:105810009FAD6897009739F04CE350E0BE016F5F91
:105820007F4F0E94FA128CE095E00E946F18CC56D0
:10583000DF4F1882C459D040E1E0F0E0EC0FFD1FCB
:10584000CC56DF4F2881C459D040E20FF11D808132
:10585000E22FEF5F41E050E04C0F5D1F4E0F511DF6
:10586000FA012081CC56DF4FE881C459D040EE5F69
:10587000A1E0B0E0AC0FBD1FAE0FB11DFD01CC56D5
:10588000DF4FB881C459D040BD5FCC56DF4FB883DD
:10589000C459D040008110E0102F00270027187F46
:1058A000E8E02E9F90011124207E3770022B132BED
:1058B00090E043E0959587954A95E1F7082B192BE1
:1058C0008CE095E00E946F18B8018CE095E00E9492
:1058D0007E078CE095E00E940C0CFFEFAF1ABF0A28
:1058E00084CF91E0C056DF4F9883C05AD040DECEBF
:1058F0008CE3CC56DF4F8883C459D04074CF2FEF50
:10590000E21AF20AC955DF4F88819981AA81BB81C9
:10591000C75AD040480E591E6A1E7B1E14CF8CE019
:1059200095E00E940C0C80E096E00E9483040E94A7
:10593000A905CD55DF4F288139814A815B81C35A42
:10594000D040621B730B840B950B4AE00E94921EA1
:105950008BE991E00E94D61E11E0A8CD0E94F02CA8
:10596000A59F900DB49F900DA49F800D911D1124B3
:1059700008952F923F924F925F926F927F928F92F3
:105980009F92AF92BF92CF92DF92EF92FF920F93CE
:105990001F93CF93DF93CDB7DEB7CA1BDB0B0FB6D8
:1059A000F894DEBF0FBECDBF09942A883988488895
:1059B0005F846E847D848C849B84AA84B984C8842B
:1059C000DF80EE80FD800C811B81AA81B981CE0F22
:1059D000D11D0FB6F894DEBF0FBECDBFED01089507
:1059E000A29FB001B39FC001A39F700D811D112420
:1059F000911DB29F700D811D1124911D0895A1E28A
:105A00001A2EAA1BBB1BFD010DC0AA1FBB1FEE1F38
:105A1000FF1FA217B307E407F50720F0A21BB30B83
:105A2000E40BF50B661F771F881F991F1A9469F7FF
:105A300060957095809590959B01AC01BD01CF015B
:105A400008950E94F02C332312F48A1B9B0B0C94B4
:105A50002B2D0E94F02CB7FF0895821B930B089505
:105A6000EE0FFF1F0590F491E02D09940F931F9303
:105A7000CF93DF938230910510F482E090E0E091C3
:105A80005505F091560530E020E0B0E0A0E03097F9
:105A900099F42115310509F44AC0281B390B24302B
:105AA0003105D8F58A819B816115710589F1FB016A
:105AB00093838283FE0111C0408151810281138151
:105AC00048175907E0F04817590799F4109761F003
:105AD00012960C93129713961C933296CF01DF9176
