:100000000C9417030C943F030C943F030C943F0390
:100010000C943F030C943F030C943F030C943F0358
:100020000C943F030C943F030C943F030C943F0348
:100030000C943F030C943F030C943F030C943F0338
:100040000C941B160C943F030C943F030C943F0339
:100050000C943F030C943F030C943F030C943F0318
:100060000C9465160C943F0300000000003E5B4FAB
:100070005B3E3E6B4F6B3E1C3E7C3E1C183C7E3C08
:10008000181C577D571C1C5E7F5E1C00183C180016
:10009000FFE7C3E7FF0018241800FFE7DBE7FF30A6
:1000A000483A060E2629792926407F050507407F14
:1000B00005253F5A3CE73C5A7F3E1C1C08081C1C87
:1000C0003E7F14227F22145F5F005F5F06097F017D
:1000D0007F006689956A606060606094A2FFA29468
:1000E00008047E040810207E201008082A1C080836
:1000F0001C2A08081E101010100C1E0C1E0C303884
:100100003E3830060E3E0E06000000000000005F84
:1001100000000007000700147F147F14242A7F2AA0
:100120001223130864623649562050000807030062
:10013000001C2241000041221C002A1C7F1C2A08AE
:10014000083E080800807030000808080808000011
:1001500060600020100804023E5149453E00427F85
:10016000400072494949462141494D331814127FD4
:100170001027454545393C4A494931412111090774
:100180003649494936464949291E000014000000F5
:1001900040340000000814224114141414140041C7
:1001A00022140802015909063E415D594E7C121184
:1001B000127C7F494949363E414141227F414141BC
:1001C0003E7F494949417F090909013E4141517337
:1001D0007F0808087F00417F41002040413F017FA8
:1001E000081422417F404040407F021C027F7F0470
:1001F00008107F3E4141413E7F090909063E4151B9
:10020000215E7F09192946264949493203017F01A8
:10021000033F4040403F1F2040201F3F4038403FA9
:10022000631408146303047804036159494D4300BF
:100230007F4141410204081020004141417F0402F6
:10024000010204404040404000030708002054548D
:1002500078407F284444383844444428384444286B
:100260007F385454541800087E090218A4A49C78BE
:100270007F0804047800447D40002040403D007F1A
:100280001028440000417F40007C047804787C08FA
:100290000404783844444438FC18242418182424CE
:1002A00018FC7C08040408485454542404043F44B3
:1002B000243C4040207C1C2040201C3C4030403CE2
:1002C00044281028444C9090907C4464544C440042
:1002D00008364100000077000000413608000201A6
:1002E0000204023C2623263C1EA1A161123A404092
:1002F000207A38545455592155557941225454780F
:1003000042215554784020545579400C1E527212A7
:100310003955555559395454545939555454580030
:1003200000457C410002457D420001457C407D1234
:1003300011127DF0282528F07C5455450020545496
:100340007C547C0A097F4932494949323A44444441
:100350003A324A4848303A4141217A3A424020787C
:10036000009DA0A07D3D4242423D3D4040403D3C7D
:1003700024FF2424487E4943662B2FFC2F2BFF09A2
:1003800029F620C0887E0903205454794100004496
:100390007D413048484A32384040227A007A0A0A81
:1003A000727D0D19317D2629292F282629292926F4
:1003B00030484D4020380808080808080808382F39
:1003C00010C8ACBA2F102834FA00007B00000814C3
:1003D0002A142222142A14085500550055AA55AA99
:1003E00055AAFF55FF55FF000000FF00101010FF39
:1003F00000141414FF001010FF00FF1010F010F094
:10040000141414FC001414F700FF0000FF00FF1484
:1004100014F404FC141417101F10101F101F1414D0
:10042000141F00101010F0000000001F101010101A
:100430001F10101010F010000000FF10101010100E
:1004400010101010FF10000000FF140000FF00FF4C
:1004500000001F10170000FC04F4141417101714E8
:1004600014F404F40000FF00F7141414141414140A
:10047000F700F7141414171410101F101F1414147D
:10048000F4141010F010F000001F101F0000001FE7
:1004900014000000FC140000F010F01010FF10FF1A
:1004A000141414FF141010101F00000000F010FFAF
:1004B000FFFFFFFFF0F0F0F0F0FFFFFF0000000093
:1004C00000FFFF0F0F0F0F0F3844443844FC4A4A17
:1004D0004A347E02020606027E027E0263554941CC
:1004E000633844443C04407E201E2006027E020203
:1004F00099A5E7A5991C2A492A1C4C7201724C3017
:100500004A4D4D303048784830BC625A463D3E49ED
:100510004949007E0101017E2A2A2A2A2A44445F91
:10052000444440514A444040444A51400000FF0185
:1005300003E080FF000008086B6B08361236243693
:10054000060F090F060000181800000010100030F8
:1005500040FF0101001F01011E00191D1712003C80
:100560003C3C3C000000000000000000240027008C
:100570002A00000000080002010000030407000038
:1005800000000000000004E010021C0712373229AE
:100590002D29252B3900010310E110031D07062E1C
:1005A0002C292D2E2E373F0000021013800A29809F
:1005B00064022A040000007F2B040000009F0F014A
:1005C00080961180FFB103012C2DB203012C2DB3B5
:1005D00006012C2D012C2DB40107C003A20284C1F9
:1005E00001C5C2020A00C3028A2AC4028AEEC501FA
:1005F0000E20003601C83A0105010204081020400F
:1006000080010204081020010204081020000000EC
:1006100000250028002B0004040404040404040240
:1006200002020202020303030303030080171124E2
:100630001FBECFEFD8E0DEBFCDBF12E0A0E0B1E03B
:10064000E0ECF2E402C005900D92AC3EB107D9F7A0
:1006500023E0ACEEB2E001C01D92AF3AB207E1F781
:1006600013E0C7E1D3E004C02197FE010E945321AB
:10067000C631D107C9F70E9427180C945E210C944B
:100680000000AF92BF92CF92DF92EF92FF920F9352
:100690001F93CF93DF936C017B018B01040F151F18
:1006A000EB015E01AE18BF08C017D10759F0699180
:1006B000D601ED91FC910190F081E02DC6010995E4
:1006C000892B79F7C501DF91CF911F910F91FF9091
:1006D000EF90DF90CF90BF90AF90089590E0FC0135
:1006E000EE58FA4F2491FC01E750FA4F3491FC0187
:1006F000E95EF94FE491EE23C9F0222339F023306B
:1007000001F1A8F4213019F1223029F1F0E0EE0FC7
:10071000FF1FE35FF94FA591B4918FB7F894EC9167
:10072000611126C030953E233C938FBF089527303A
:10073000A9F02830C9F0243049F7809180008F7DDE
:1007400003C0809180008F7780938000DFCF84B5D5
:100750008F7784BDDBCF84B58F7DFBCF8091B000D8
:100760008F778093B000D2CF8091B0008F7DF9CF8A
:100770003E2BDACFCF93DF9390E0FC01E750FA4FA6
:100780002491895E994FFC0184918823D1F090E0F7
:10079000880F991FFC01E859FA4FA591B491FC010B
:1007A000E35FF94FC591D49161110EC09FB7F894E2
:1007B0008C91E22FE0958E238C932881E223E883AD
:1007C0009FBFDF91CF9108958FB7F894EC91E22B02
:1007D000EC938FBFF6CF3FB7F8948091630390916D
:1007E0006403A0916503B091660326B5A89B05C07C
:1007F0002F3F19F00196A11DB11D3FBFBA2FA92FA0
:10080000982F8827BC01CD01620F711D811D911D9C
:1008100042E0660F771F881F991F4A95D1F7089508
:100820008F929F92AF92BF92CF92DF92EF92FF9200
:100830006B017C010E94EB034B015C01C114D104EC
:10084000E104F104B9F00E94EB03681979098A09FF
:100850009B09683E73408105910580F321E0C21A2F
:10086000D108E108F10888EE880E83E0981EA11CEB
:10087000B11CE4CFFF90EF90DF90CF90BF90AF908E
:100880009F908F9008952FB7F89460915F037091B7
:10089000600380916103909162032FBF08952091BE
:1008A0001403260F3327331F21323105ECF4209136
:1008B0003803FC0190E080E0243069F082E0089584
:1008C000A09114032191AC014C505D4FA40FB52FA2
:1008D000B11D2C930196861798F380911403680F2D
:1008E0006093140380E0089581E0089508958FEFE8
:1008F0009FEF08958FEF9FEF08958091ED0290E0B4
:100900009195819591090895CF93DF93CB01EA01E9
:10091000642F0E944F04CE01DF91CF910895CF93B1
:10092000DF931F92CDB7DEB7698361E0CE010196F8
:100930000E944F0481E090E00F90DF91CF910895E5
:10094000FC01A5A1B6A18C9192A589238C93A5A1A8
:10095000B6A18C9191A5892B8C930895DC01939677
:10096000ED91FC919497908198968C918923808346
:100970000895DC019396ED91FC9194979081979660
:100980008C91892B80830895DC019196ED91FC91E7
:100990009297908196968C91892380830895DC01AB
:1009A0009196ED91FC919297908195968C91892BDF
:1009B00080830895CF92DF92EF92FF921F93CF939F
:1009C000DF93EC016A017B018DA9811123C08F2D7A
:1009D0009927AA27BB278EBD0DB407FEFDCFC701FF
:1009E000AA27BB278EBD0DB407FEFDCFBB27AF2DB9
:1009F0009E2D8D2D8EBD0DB407FEFDCFCEBC0DB44A
:100A000007FEFDCFDF91CF911F91FF90EF90DF9018
:100A1000CF9008958130B1F410E2CE01F7FE0FC0FF
:100A20000E94CF04CE010E94B904CE010E94AE0400
:100A3000CC0CDD1CEE1CFF1C115079F7E3CF0E949B
:100A4000C404F0CFEF8DF8A18F2D9927AA27BB27DB
:100A50008083CE010E94A004EF8DF8A1C701AA27D0
:100A6000BB278083CE010E94A004EF8DF8A1BB2795
:100A7000AF2D9E2D8D2D8083CE010E94A004EF8D81
:100A8000F8A1C082CE01DF91CF911F91FF90EF902E
:100A9000DF90CF900C94A004FF920F931F93CF93FD
:100AA000DF93EC018B018DA981110EC01EBD0DB429
:100AB00007FEFDCF0EBD0DB407FEFDCFDF91CF9138
:100AC0001F910F91FF9008958130B1F490E1F92EBC
:100AD000CE0117FF0EC00E94CF04CE010E94B904C0
:100AE000CE010E94AE04000F111FFA94F110F0CF56
:100AF000E5CF0E94C404F1CFEF8DF8A11083CE01A1
:100B00000E94A004EF8DF8A10083CE01DF91CF9168
:100B10001F910F91FF900C94A0040F931F93CF93FC
:100B2000DF93EC01162F8DA9811109C06EBD0DB4A4
:100B300007FEFDCFDF91CF911F910F910895813076
:100B400099F408E0CE0117FF0CC00E94CF04CE013B
:100B50000E94B904110FCE010E94AE04015091F71A
:100B6000E9CF0E94C404F3CFEF8DF8A16083CE01DA
:100B7000DF91CF911F910F910C94A004CF93DF933D
:100B8000EC01ED8DFE8D80819CA989238083CE01AF
:100B90000E948D05ED8DFE8D80819BA9892B808320
:100BA000DF91CF9108958F929F92AF92BF92CF9293
:100BB000DF92EF92FF920F931F93CF93DF93EC019D
:100BC00089AD9AAD680F791F8BAD9CAD480F591F49
:100BD00021503109260F371F4901B12CA12CCB011F
:100BE000B0E0A0E0DC0199278827882A992AAA2A60
:100BF000BB2A680181E0C81AD108C40ED51EF12CA9
:100C0000E12C70E060E0BA0155274427C42AD52AB8
:100C1000E62AF72A6AE2CE010E94BE05B501A401C8
:100C2000CE010E94DA046BE2CE010E94BE05B7013C
:100C3000A601CE010E94DA046CE2CE01DF91CF91D1
:100C40001F910F91FF90EF90DF90CF90BF90AF90EA
:100C50009F908F900C94BE05FC0185A9811104C062
:100C600091A182A19CBD8DBD08951F93CF93DF9369
:100C7000EC01162FE881F9810284F385E02D0995B6
:100C8000112371F06DADCE010E94BE05E881F9819E
:100C90000688F789E02DCE01DF91CF911F9109944D
:100CA0006EADF1CFAF92BF92CF92DF92EF92FF92F3
:100CB0000F931F93CF93DF93EC0177FD38C08885A6
:100CC0009985681779079CF557FD31C08A859B8502
:100CD0004817590764F569017A015B01E881F981D8
:100CE0000284F385E02DCE010995E881F98102A403
:100CF000F3A5E02D01E010E021E030E0A701B5010F
:100D0000CE010995B601CE010E944C05E881F9811A
:100D10000688F789E02DCE01DF91CF911F910F91C9
:100D2000FF90EF90DF90CF90BF90AF900994DF914C
:100D3000CF911F910F91FF90EF90DF90CF90BF90D8
:100D4000AF9008958F929F92AF92BF92CF92DF9211
:100D5000EF92FF920F931F93CF93DF93EC01490122
:100D60005701E881F98102A4F3A5E02D09959401CA
:100D7000D8010E9435216B017C01C114D104E1042A
:100D8000F10409F47DC08DA9811115C081E0C81A54
:100D9000D108E108F1088FEFC816D806E806F80672
:100DA00009F46EC0BEBC0DB407FEFDCFAEBC0DB4E1
:100DB00007FEFDCFEBCF813099F581E0C81AD1084D
:100DC000E108F1088FEFC816D806E806F80609F41E
:100DD00057C00B2D18E0CE0107FF1CC00E94CF04A6
:100DE000CE010E94B904CE010E94AE04000F115042
:100DF00091F70A2D18E0CE0107FF0FC00E94CF0423
:100E0000CE010E94B904CE010E94AE04000F115021
:100E100091F7D3CF0E94C404E3CF0E94C404F0CF63
:100E2000BA1016C0CC0CDD1CEE1CFF1CEF8DF8A117
:100E3000B08281E0C81AD108E108F1088FEFC81626
:100E4000D806E806F806E1F0CE010E94A004F1CF32
:100E500081E0C81AD108E108F1088FEFC816D8065A
:100E6000E806F80669F0EF8DF8A1B082CE010E9485
:100E7000A004EF8DF8A1A082CE010E94A004E8CFCB
:100E8000DF91CF911F910F91FF90EF90DF90CF9066
:100E9000BF90AF909F908F9008958F929F92AF9246
:100EA000BF92CF92DF92EF92FF920F931F93CF9357
:100EB000DF935C014B016A01E90177FD52C0DC015F
:100EC00018968D919C91681779070CF04AC020976D
:100ED00009F447C037FF07C0C9010196C80ED91EE3
:100EE000D195C195D109F50182859385C816D9069A
:100EF000C4F5A6014C0F5D1F9A012150310937FD41
:100F000030C0D7FE03C0EA01D12CC12C2817390705
:100F10001CF0EC01CC19DD09D501ED91FC910284A6
:100F2000F385E02DC501099578018E0121E030E0BF
:100F3000A601B401C5010E94A206D501ED91FC9164
:100F40000688F789E02DC501DF91CF911F910F91A0
:100F5000FF90EF90DF90CF90BF90AF909F908F90D9
:100F60000994DF91CF911F910F91FF90EF90DF9047
:100F7000CF90BF90AF909F908F9008958F929F9247
:100F8000AF92BF92CF92DF92EF92FF920F931F9397
:100F9000CF93DF935C016B014A01E90157FD52C019
:100FA000DC011A968D919C91481759070CF04AC0A4
:100FB000209709F447C037FF07C0C9010196C80E42
:100FC000D91ED195C195D109F50180859185C816A5
:100FD000D906C4F5A6014C0F5D1F9A0121503109B5
:100FE00037FD30C0D7FE03C0EA01D12CC12C281731
:100FF00039071CF0EC01CC19DD09D501ED91FC910C
:101000000284F385E02DC5010995780101E010E027
:101010009E01A401B601C5010E94A206D501ED9171
:10102000FC910688F789E02DC501DF91CF911F91D2
:101030000F91FF90EF90DF90CF90BF90AF909F9077
:101040008F900994DF91CF911F910F91FF90EF90B6
:10105000DF90CF90BF90AF909F908F9008958F9228
:101060009F92AF92BF92CF92DF92EF92FF920F9337
:101070001F93CF93DF934C016B015A01E901209735
:1010800009F46CC00115110509F468C037FF07C0E9
:10109000C9010196C80ED91ED195C195D109F40197
:1010A000A085B185CA16DB060CF058C017FF07C033
:1010B000C8010196A80EB91E119501951109F401F8
:1010C00082859385A816B9060CF048C0F601EC0F8E
:1010D000FD1FAF014150510957FD40C0B501600FE0
:1010E000711F9B012150310937FD38C0D7FE03C065
:1010F000EF01D12CC12CB7FE03C08B01B12CA12C68
:101100004A175B071CF0ED01CC19DD0928173907D8
:101110001CF08C010A191B09D401ED91FC91028489
:10112000F385E02DC40109959E01A501B601C40116
:101130000E94A206D401ED91FC910688F789E02D6A
:10114000C401DF91CF911F910F91FF90EF90DF903D
:10115000CF90BF90AF909F908F900994DF91CF91E7
:101160001F910F91FF90EF90DF90CF90BF90AF90C5
:101170009F908F900895EF92FF920F931F93CF93BC
:10118000DF9377FD32C0DC011896ED91FC916E176C
:101190007F075CF52115310541F137FF07C0F901E3
:1011A00031964E0F5F1F319521953109DC011A965A
:1011B000ED91FC914E175F07C4F4EA01C20FD31FF3
:1011C000DE011197B7FD11C057FF03C09E0150E02B
:1011D00040E0AE17BF071CF09F01241B350B7801C0
:1011E000890121E030E00E94A206DF91CF911F919A
:1011F0000F91FF90EF9008952F923F924F925F9240
:101200006F927F928F929F92AF92BF92CF92DF9216
:10121000EF92FF920F931F93CF93DF93CDB7DEB77B
:101220002C970FB6F894DEBF0FBECDBF3C017C8378
:101230006B835C874B871801270181E090E05C019C
:10124000A41AB50ACA01919581959109AC01440F80
:10125000551F5A834983C80101969E838D83F12CC3
:10126000E12C88248394912C922F91709F8322707B
:101270002887AB014F5F5F4F5A8749878B859C85D5
:10128000E816F9060CF07AC0CB84DC84B7FC0CC0FD
:101290006C0191E0C91AD10849815A814E5F5F4FB4
:1012A0005A834983A40EB51E5FEFE51AF50A82E062
:1012B000880E911CA80CB91CCE14DF0464F19F8128
:1012C000992399F09601220F331F4D815E81240FDF
:1012D000351F82014B815C814C195D09B701660D98
:1012E000771D88E693E00E94BB085885552399F046
:1012F0009601220F331F8D819E81280F391F820195
:101300004B815C814C195D09B3016E197F0988E638
:1013100093E00E94BB084B855C854C155D0559F137
:101320005F81552391F0940122503109220D331D24
:10133000820149855A854E195F096B857C85660D4A
:10134000771D88E693E00E94BB088885882399F082
:10135000940122503109220D331DB3014B855C8568
:10136000641B750B820149855A854E195F0988E611
:1013700093E00E94BB08DC86CB8680CF2C960FB60C
:10138000F894DEBF0FBECDBFDF91CF911F910F91BB
:10139000FF90EF90DF90CF90BF90AF909F908F9095
:1013A0007F906F905F904F903F902F900895EF92B5
:1013B000FF920F931F93CF93DF9357FD31C0DC0152
:1013C0001A96ED91FC914E175F0754F521153105E2
:1013D00039F137FF07C0F90131966E0F7F1F319544
:1013E00021953109DC011896ED91FC916E177F076C
:1013F000BCF4EB01C20FD31FDE011197B7FD10C083
:1014000077FF03C09E0170E060E0AE17BF071CF0DD
:101410009F01261B370B780101E010E00E94A20615
:10142000DF91CF911F910F91FF90EF9008958F92D0
:101430009F92AF92BF92CF92DF92EF92FF920F9363
:101440001F93CF93DF9347012115310509F44BC05A
:101450000115110509F447C037FF07C0F90131969E
:101460006E0F7F1F319521953109DC011896AD90E3
:10147000BC906A157B05BCF517FF07C0F8013196D3
:101480004E0F5F1F119501951109DC011A96ED9120
:10149000FC914E175F073CF56B01C20ED31EE601AF
:1014A0002197D7FD20C07A01E00EF11ED7011197D8
:1014B000B7FD19C077FF03C0960170E060E057FFE9
:1014C00003C0870150E040E0CA15DB051CF0950120
:1014D000261B370BAE17BF071CF08F01041B150B23
:1014E00074010E94A206DF91CF911F910F91FF908E
:1014F000EF90DF90CF90BF90AF909F908F90089526
:10150000EF92FF920F931F93CF93DF93EC0177FD40
:1015100022C08885998568177907ECF457FD1BC0B0
:101520008A859B8548175907B4F47901E881F981C8
:1015300002A4F3A5E02D01E010E021E030E0CE01AF
:101540000995B701CE01DF91CF911F910F91FF90C7
:10155000EF900C944C05DF91CF911F910F91FF906C
:10156000EF9008952F923F924F925F926F927F92E9
:101570008F929F92AF92BF92CF92DF92EF92FF92A3
:101580000F931F93CF93DF9300D000D0CDB7DEB77A
:101590006C015B015C834B8381E090E04C01841A19
:1015A000950A2A01519441945108440C551CF12C80
:1015B000E12C66246394712C422F44704983522F8E
:1015C00052705A83822F8870282E2170322E4B81C0
:1015D0005C81E416F5060CF083C097FC09C041500D
:1015E00051095C834B8352E0450E511C840C951CC1
:1015F0008FEFE81AF80A92E0690E711C860C971CAE
:1016000049814423C1F098014B815C814A0D5B1DE7
:10161000B6016E0D7F1D88E693E00E94800A980156
:10162000A5014E0D5F1D6B817C816C0D7D1D88E6D3
:1016300093E00E94800A5A815523C9F09801A501C0
:101640008B819C81481B590BB6016E0D7F1D88E66E
:1016500093E00E94800A9801A5014E195F096B81F1
:101660007C816C0D7D1D88E693E00E94800A22201B
:10167000C9F09801A5014E0D5F1DB6018B819C81BB
:10168000681B790B88E693E00E94800A98014B81E1
:101690005C814A0D5B1DB6016E197F0988E693E0F7
:1016A0000E94800A332009F492CF9801A5014E19B7
:1016B0005F09B6018B819C81681B790B88E693E0FA
:1016C0000E94800A9801A5018B819C81481B590BBF
:1016D000B6016E197F0988E693E00E94800A77CFF1
:1016E0000F900F900F900F90DF91CF911F910F915E
:1016F000FF90EF90DF90CF90BF90AF909F908F9032
:101700007F906F905F904F903F902F900895CF9370
:10171000DF93EC010E942C068FA987FD06C0EB8D9C
:10172000FC8D80819AA989238083DF91CF910895D0
:101730000895AF92BF92CF92DF92EF92FF920F93F4
:101740001F93CF93DF93BC016F5F7F4FFC01149118
:10175000115008F47AC0FB01D4917B01F2E0EF0E46
:10176000F11CFB0131960491C02FCF7788E693E0FE
:101770000E942C0680919F0387FD09C0E09183039E
:10178000F0918403808190919A0389238083E09172
:101790008503F0918603808190919C038923808347
:1017A0006D2F88E693E00E948D05E0918503F0910E
:1017B0008603808190919B03892B8083F701B12C54
:1017C000A12CD0E0AC16BD06F4F480919D036F010E
:1017D000823081F480919803882361F06191719146
:1017E0006F0188E693E00E944C05EFEFAE1ABE0A47
:1017F000F601E8CF8FEFC81AD80A649188E693E023
:101800000E948D05F2CF80919F0387FD09C0E09172
:101810008303F0918403808190919903892B8083C5
:10182000B7016C0F7D1F07FF93CFEB012196FB01E2
:10183000649170E06F3F710511F464EF71E090E026
:1018400080E00E941004BE0183CFDF91CF911F91F1
:101850000F91FF90EF90DF90CF90BF90AF900895E1
:101860000F931F93CF93DF93EC018B010E942C0603
:101870008FA987FD06C0EB8DFC8D80819AA98923F5
:101880008083ED8DFE8D80819CA98923808366E312
:10189000CE010E948D05ED8DFE8D80819BA9892B47
:1018A00080838DA9F801823091F06081CE010E9481
:1018B0008D058FA987FD06C0EB8DFC8D808199A9D0
:1018C000892B8083DF91CF911F910F91089588A973
:1018D000882359F360817181CE010E944C05E9CFC4
:1018E000CF93DF931F92CDB7DEB7FC0119826370EF
:1018F000668BDC01AD5BBF4F2C9130E011968C9173
:1019000090E0623031F06330C9F0613081F040EC3A
:10191000498332AF21AF94AF83AFBE016F5F7F4F7A
:10192000CF010E94300C0F90DF91CF91089540EAD3
:10193000498334AF23AF92AF81AFEFCF40E6F8CF0A
:10194000CF93DF931F92CDB7DEB7FC01198263708E
:10195000668BDC01AA5BBF4F8C91982F9B7FAF01F8
:101960004C5B5F4F913031F493E0623008F091E0CE
:10197000DA019C939F012D5B3F4F623009F44CC00C
:10198000633009F459C0613069F1823021F098EC7C
:10199000843009F046C090EC99838130D1F480E81E
:1019A00090E09387828791878087D9018C9190E01E
:1019B00092AF81AFDA018C9190E094AF83AFBE011A
:1019C0006F5F7F4FCF010E94300C0F90DF91CF915E
:1019D0000895843051F580EA90E09387828780E50E
:1019E00090E0E1CF823019F098EA843061F590EA16
:1019F0009983813091F580E890E091878087938783
:101A00008287D9018C9190E094AF83AFDA018C91F9
:101A100090E092AF81AFD3CF823039F08430D9F2E9
:101A200098E09983813009F4BACF80EA90E09387F7
:101A3000828780E890E0B7CF823019F098E6843052
:101A400011F490E6D5CF99838130A9F280EA90E035
:101A50009187808780E890E0D2CF8430B9F780EA20
:101A600090E09187808780E590E0C9CFFC0187A94D
:101A700087FD06C0A38DB48D9C9181A9892B8C9381
:101A800008954F925F926F927F92AF92BF92CF92E2
:101A9000DF92EF92FF920F931F93CF93DF935C013E
:101AA00088E693E00E94870BC12CD12C7601C4E11B
:101AB000D0E094E1492E512C612C712CC701B60164
:101AC000A30192010E94162180E3C80ED11CE11CE3
:101AD000F11C2F5F3F4F8501AE016AE270E088E69E
:101AE00093E00E94D7092196C832D10539F7C12C5D
:101AF000D12C7601C8E2D0E084E1482E512C612C33
:101B0000712CC701B601A30192010E94162180E346
:101B1000C81AD108E108F1082F5C3F4F8501AE01DA
:101B20006AE270E088E693E00E94D7092196CD33FF
:101B3000D10539F788E693E0DF91CF911F910F919E
:101B4000FF90EF90DF90CF90BF90AF907F906F901D
:101B50005F904F900C94360D2F923F924F925F9270
:101B60006F927F928F929F92AF92BF92CF92DF92AD
:101B7000EF92FF920F931F93CF93DF9300D000D08B
:101B8000CDB7DEB71C015B012A013C832B836801C2
:101B900088E693E00E94870B3801660C771CC80129
:101BA000820D931D9A8389839201261937090B812F
:101BB0001C81A501BC0188E693E00E94170A8B8175
:101BC0009C818619970901979C838B83AC0CBD1C63
:101BD000420C531CC2018C199D090B811C8121E010
:101BE000A601B50101970E94FC080B811C8122E02F
:101BF000A601B50189819A810E94FC0888E693E0DC
:101C00000F900F900F900F90DF91CF911F910F9138
:101C1000FF90EF90DF90CF90BF90AF909F908F900C
:101C20007F906F905F904F903F902F900C94360D67
:101C30000895FC016370668B8481958126813781CC
:101C4000613039F0633029F09187808733872287AC
:101C50000895318720879387828708952F923F9236
:101C60004F925F926F927F928F929F92AF92BF92AC
:101C7000CF92DF92EF92FF920F931F93CF93DF9358
:101C8000CDB7DEB76A970FB6F894DEBF0FBECDBFF3
:101C90009A8F898F7A8369834A01D22E18870F839E
:101CA0003701BC2CDC0159962D913C915A97211596
:101CB000310509F015C118968D919C9119976817F7
:101CC00079070CF0D7C11A968D919C914817590746
:101CD0000CF0D0C14C2C512CB6E0CB9E600D711D88
:101CE00011247C876B87161617060CF0C3C1EA2DEA
:101CF000F0E0FA87E98793E0EE0FFF1F9A95E1F78E
:101D0000F88BEF87CF01840F951F181619060CF07A
:101D1000B1C1A98DBA8D58968C91811104C0BFEACA
:101D2000BD1508F4D394A98DBA8DED91FC9111974E
:101D30000284F385E02DCD010995B5E0DB9EC0015D
:101D40001124E981FA81FC83EB83312C212C9C0145
:101D500028593F4F388F2F8B4A2D50E05E8B4D8B8B
:101D6000EF89F88DE20DF31D44919E828D82D12C76
:101D7000C12C69817A81620D731D7A8B698B842FE6
:101D800090E09C8B8B8BE98DFA8DA081B18140FF17
:101D900082C0F1E0BF126FC0AF126DC01C96ED9112
:101DA000FC912F813885A4014C0D5D1D69897A89CC
:101DB000898D9A8D0995EB89FC89F595E7954E2FCC
:101DC0005FEFC51AD50A6D817E818D899E89680F66
:101DD000791F7E836D8398E0C916D10481F6AFEF39
:101DE0002A1A3A0AEB81FC81E40DF51DFC83EB8392
:101DF000F5E02F16310409F0B3CF2F813885261571
:101E00003705B9F0A98DBA8DED91FC91B1E0BB1207
:101E100057C0AB1255C069817A816B5F7F4F0088D4
:101E2000F189E02D830128E030E0A401898D9A8DAD
:101E30000995A98DBA8DED91FC9111970688F789C6
:101E4000E02DCD016A960FB6F894DEBF0FBECDBF70
:101E5000DF91CF911F910F91FF90EF90DF90CF9086
:101E6000BF90AF909F908F907F906F905F904F90BA
:101E70003F902F9009941E96ED91FC91EF80F8848D
:101E800009851A8592014D815E816B817C81898DE6
:101E90009A8D099590CF2F8138852615370509F43D
:101EA0008ACF31E0B31207C0A31205C01C96ED9192
:101EB000FC91930178CF1E96ED91FC917301E0CFD8
:101EC0006B857C85641975090684F785E02D73019F
:101ED0000F8518899201A401898D9A8D0995A9CF42
:101EE000F90134969491329745915491D91AB7E0FB
:101EF000DB9E400D511D1124F901259134913C8B3D
:101F00002B8BFA0125903490FA0132967490319619
:101F10003491398B329664903196449041E04C155F
:101F200018F04A1508F07FC0662D062C000C770BC0
:101F30007C836B83842D042C000C990B9E838D83F2
:101F4000A98DBA8DED91FC9111970284F385E02D56
:101F5000CD010995512CD12CC12CEA2DF0E0FA8746
:101F6000E9872B2D30E03C872B87A401440D511DC0
:101F700047FC5A95588F4F8B69817A81660D711D88
:101F800067FC7A957E876D877989C71608F051CFEF
:101F90002C2D30E04D815E81420F531FA985BA85FB
:101FA0004A9FC0014B9F900D5A9F900D1124FC0138
:101FB000E80DF91DF88BEF87852D612C4F89588D21
:101FC000420F531F5E8B4D8B671408F050C04424A2
:101FD0004394480E877041F4C1010196EB89FC8956
:101FE000E20DF31DD4901C01D7FE19C0A98DBA8D46
:101FF000ED91FC91662D70E0B1E0BB1219C0AB12FF
:1020000017C02D853E85620F731F0484F585E02D72
:102010002F8138854D895E89898D9A8D0995DD0CD2
:102020006394842DD1CF1E821D821C821B8288CF97
:102030004B815C81640F751FAB85BC856A9FC001B5
:102040006B9F900D7A9F900D112469817A81680FA2
:10205000791F0684F785E02DEF80F88409851A85BD
:102060009D014F855889898D9A8D0995D8CF570C38
:10207000C3948ACF6A960FB6F894DEBF0FBECDBF69
:10208000DF91CF911F910F91FF90EF90DF90CF9054
:10209000BF90AF909F908F907F906F905F904F9088
:1020A0003F902F9008958F929F92AF92CF92EF9290
:1020B000FF920F931F93CF93DF93EC01262F898D0F
:1020C0009A8D009709F051C06A30D1F41D861C86A4
:1020D0008D8948E0849F900111248E859F85820F11
:1020E000931F9F878E8781E090E0DF91CF911F91B2
:1020F0000F91FF90EF90CF90AF909F908F900895A9
:102100006D3089F3CC88AD888F898823C1F08C85A8
:102110009D8536E0C39E800D911D1124488559850B
:102120004817590764F44E855F851D861C8638E084
:10213000A39EC0011124840F951F9F878E87EA8874
:10214000FB88088919894E855F856C857D85CE0160
:102150000E942E0E2C898C859D8546E0249F800D43
:10216000911D11249D878C87BECF6A3069F41D862E
:102170001C86FC013896E4912D898E859F85E29F0F
:10218000800D911D1124ADCF6D3009F4ACCFFC0151
:1021900034963491631708F4A6CF3296E491E6178B
:1021A00008F4A1CFFC01329685909490462F431BF2
:1021B000342F47E0349F800C911C1124F401329697
:1021C00034913196E4913323A9F1EE2399F1CC882F
:1021D000F4013596E491AD884F89442301F10E2E28
:1021E000000CFF0BE30FF11DCE9EA001CF9E500D02
:1021F00011246C857D85460F571F68857985641786
:1022000075076CF44E855F851D861C86FC0138962B
:10221000E491AE9E400D511D11245F874E87EA88E0
:10222000FB88088919894E855F856C857D85CE017F
:102230000E942E0EF4013496E4912C898C859D85A4
:10224000E29F800D911D11248DCF6F927F928F920E
:102250009F92AF92BF92CF92DF92EF92FF920F9335
:102260001F93CF93DF93EC016B015A0139014801B1
:10227000E881F9810284F385E02D0995E881F981EF
:102280000288F389E02D87019301A501B601CE01F3
:102290000995A501480D591D41505109E881F98161
:1022A0000288F389E02D9301B601CE010995E881FA
:1022B000F9810088F189E02D9401A501B601CE01D4
:1022C0000995C60CD71CB60161507109E881F981E6
:1022D0000088F189E02D9401A501CE010995E881DE
:1022E000F9810688F789E02DCE01DF91CF911F910A
:1022F0000F91FF90EF90DF90CF90BF90AF909F90A5
:102300008F907F906F9009946F927F928F929F929F
:10231000AF92BF92CF92DF92EF92FF920F931F93F3
:10232000CF93DF935C01EB016A014901380187011A
:10233000DC01ED91FC916217730719F564167506BF
:102340002CF0962D872D3A01C92ED82E96012619EC
:1023500037092F5F3F4F048CF58DE02DA301BE019F
:10236000C5010995DF91CF911F910F91FF90EF90DB
:10237000DF90CF90BF90AF909F908F907F906F90A5
:1023800008954615570591F42617370724F0892D2F
:102390004B01C22FD82F9E01281939092F5F3F4FBB
:1023A000068CF78DE02DA601B401DACF0284F38507
:1023B000E02D0995D501ED91FC910488F589E02D7A
:1023C00083019401A601BE01C5010995D501ED91D6
:1023D000FC910688F789E02DC501DF91CF911F910F
:1023E0000F91FF90EF90DF90CF90BF90AF909F90B4
:1023F0008F907F906F900994EF92FF920F931F93AD
:10240000DC011A960D911C911B9718962D913C9109
:102410001997ED91FC9100A0F1A1E02D7B0150E016
:1024200040E070E060E009951F910F91FF90EF9000
:1024300008954F925F926F927F928F929F92AF9288
:10244000BF92CF92DF92EF92FF920F931F93CF93A1
:10245000DF936C012B015A0139014801DC01ED9138
:10246000FC910284F385E02D0995E201640C751C52
:10247000D601ED91FC91C615D7055CF40088F18971
:10248000E02D87019401A501BE01C60109952196A1
:10249000EFCF0688F789E02DC601DF91CF911F911C
:1024A0000F91FF90EF90DF90CF90BF90AF909F90F3
:1024B0008F907F906F905F904F9009948F929F9232
:1024C000AF92BF92CF92DF92EF92FF920F931F9342
:1024D000CF93DF93EC015B014A016901E881F98147
:1024E0000284F385E02D099595012C0D3D1D2150A9
:1024F0003109E881F9810488F589E02D78018401AA
:10250000A401B501CE010995E881F9810688F78912
:10251000E02DCE01DF91CF911F910F91FF90EF90B1
:10252000DF90CF90BF90AF909F908F9009948F9243
:102530009F92AF92BF92CF92DF92EF92FF920F9352
:102540001F93CF93DF93EC015B014A01690178018E
:10255000E881F9810284F385E02D0995C80CD91C26
:10256000860101501109E881F9810488F589E02D7F
:102570009501A401B501CE010995E881F98106888C
:10258000F789E02DCE01DF91CF911F910F91FF9040
:10259000EF90DF90CF90BF90AF909F908F90099475
:1025A000EF92FF920F931F93DC01ED91FC9100A03D
:1025B000F1A1E02D09951F910F91FF90EF900895E3
:1025C0000F931F93DC01ED91FC91068CF78DE02DAC
:1025D00009951F910F9108950F931F93DC01ED91C1
:1025E000FC91048CF58DE02D09951F910F910895B4
:1025F000DC01ED91FC910084F185E02D09942F928E
:102600003F924F925F926F927F928F929F92AF9282
:10261000BF92CF92DF92EF92FF920F931F93CF93CF
:10262000DF9300D000D000D0CDB7DEB73C016A0107
:102630003E832D83FC82EB825801A41AB50AB7FEB3
:1026400003C0B194A194B1088D809E80861A970A28
:1026500097FE03C09194819491088A149B045CF0C6
:10266000902F812F0D811E819D838E839C2D8D2D1A
:102670006B01692F782F0C151D055CF09D818E81F3
:102680007E836D83692F782F902F812F8601C92E2D
:10269000D82E1601201A310A2B012D813E81421AB3
:1026A000530A57FE03C0519441945108710137FEFB
:1026B00003C03FEFE31AF30AF594E7948D819E81FE
:1026C000861797075CF5A1E0B0E0BA83A983C0162E
:1026D000D1064CF1D301ED91FC910484F585E02DF8
:1026E0002B813C81A8016D817E818A149B041CF0A2
:1026F0004D815E81B801C3010995E418F508F7FE24
:102700000AC02D813E8189819A81280F391F3E831D
:102710002D83E20CF31C0F5F1F4FD9CF2FEF3FEF3C
:102720003A832983D4CF26960FB6F894DEBF0FBE26
:10273000CDBFDF91CF911F910F91FF90EF90DF9070
:10274000CF90BF90AF909F908F907F906F905F9051
:102750004F903F902F900895089590E080E0089565
:10276000FC0101900020E9F73197AF01481B590B9C
:10277000BC0188E693E00C9441038F929F92AF9244
:10278000BF920F931F93CF93DF93CDB7DEB7A1977F
:102790000FB6F894DEBF0FBECDBF19A2423008F4C9
:1027A0004AE08E010F5D1F4F842E912CB12CA12C7D
:1027B000A50194010E94F420E62FB901CA01EA3074
:1027C000F4F4E05DD801EE938D01232B242B252B0F
:1027D00079F790E080E0109719F0CD010E94B013D6
:1027E000A1960FB6F894DEBF0FBECDBFDF91CF919B
:1027F0001F910F91BF90AF909F908F900895E95CCB
:10280000E1CFCF93DF930E94B013EC0180E391E01E
:102810000E94B0138C0F9D1FDF91CF9108958F926E
:102820009F92AF92BF92CF92DF92EF92FF921F934F
:10283000CF93DF936B017C01B42E20E030E0A9013F
:102840000E942F1FD0E0C0E087FF0AC06DE288E63B
:1028500093E00E945310EC01F7FAF094F7F8F0942B
:1028600010E060E070E080E09FE31B1541F020E0A5
:1028700030E040E251E40E94341F1F5FF6CFA70111
:1028800096010E94C31E6B017C010E94A61F4B0192
:102890005C014AE00E94BD13C80FD91F1123C1F18A
:1028A000C501B4010E94D51F9B01AC01C701B6014F
:1028B0000E94C21E6B017C016EE288E693E00E94DA
:1028C0005310C80FD91F115018F120E030E040E23A
:1028D00051E4C701B6010E9487204B015C010E94B0
:1028E000A61F6B01F12CE12C4AE0C701B6010E9442
:1028F000BD13C80FD91FC701B6010E94D51F9B0188
:10290000AC01C501B4010E94C21E6B017C01DBCF8A
:10291000CE01DF91CF911F91FF90EF90DF90CF908C
:10292000BF90AF909F908F9008950E9459211F9360
:10293000CF93DF9385ED8093BC008091F00290915E
:10294000F102A091F202B091F3020796A11DB11D10
:1029500023E0B695A795979587952A95D1F720916D
:10296000BC0024FD03C01092380352C04091F00215
:102970005091F1026091F2027091F302452B462BC7
:10298000472B69F30097A105B10541F025E32A958E
:10299000F1F700000197A109B109E1CF8091EF02A1
:1029A000C1E0C093EE02882399F1D091B800109154
:1029B000BA008091BC008A7B8093BC0060E082E119
:1029C0000E946E0360E083E10E946E031092380360
:1029D000C0933A031092390361E082E10E946E03D2
:1029E00061E083E10E946E038091B9008E7F809345
:1029F000B9008091B9008D7F8093B90088E48093FD
:102A0000B80085E48093BC001093BA00D093B8005E
:102A1000DF91CF911F910895CF92DF92EF92FF92B5
:102A20000F931F93CF93DF93EC016A017B01C114D5
:102A3000D104E104F10439F4C12C48E4D42E48EE69
:102A4000E42EFF24F394FE01FF96C082D182E2823D
:102A5000F38281E28DAF80E28EAF369610818FA92E
:102A600087FD07C061E00E94BA0361E08FA90E9460
:102A70006E0361E088AD0E94BA0361E088AD0E94F8
:102A80006E038DA9811182C040E052E16AE770E0D7
:102A9000C416D506E606F70640F476956795579571
:102AA00047958F5F8630A1F787E0212F2C70206536
:102AB000982F9695922B99A3809581708AA3812F48
:102AC00090E0B0E0A0E08BA39CA3ADA3BEA31FB792
:102AD000F8948091EC02811127C0E1E2F6E0849144
:102AE000E3E0F6E09491E82FF0E0EE0FFF1FE859E5
:102AF000FA4FA591B491EC91E92321F461E08AE0C9
:102B00000E946E0361E08AE00E94BA038CB5806186
:102B10008CBD8CB580648CBD61E08DE00E94BA03F1
:102B200061E08BE00E94BA038091EC028F5F80939A
:102B3000EC021FBF8EA987FD75C061E00E94BA0339
:102B400061E08EA90E946E0364E670E080E090E090
:102B50000E94100460E08EA90E946E0364E670E09B
:102B600080E090E00E94100461E08EA90E946E0354
:102B700068EC70E080E090E0DF91CF911F910F91C1
:102B8000FF90EF90DF90CF900C94100407E116E0D7
:102B9000F12C8130B9F461E08AA50E94BA0360E0AB
:102BA0008AA50E946E0361E08CA50E94BA0360E0D2
:102BB0008CA50E946E038BA587FDBCCF60E00E94B0
:102BC000BA03B8CFF8018491E82FF0E0EE0FFF1FB1
:102BD000E35FF94F859194912F8D38A1281739071C
:102BE00041F461E08F2D0E94BA0360E08F2D0E94B6
:102BF0006E03F3940F5F1F4FF4E1FF12E3CF61E028
:102C00008EA50E94BA0361E08EA50E946E038FA577
:102C100087FD90CF61E00E94BA0361E08FA50E941A
:102C20006E0388CFDF91CF911F910F91FF90EF90AE
:102C3000DF90CF9008951F920F920FB60F9211243C
:102C40002F933F938F939F93AF93BF9380915F0395
:102C500090916003A0916103B091620330915E0393
:102C600023E0230F2D3758F50196A11DB11D2093A8
:102C70005E0380935F0390936003A0936103B0931E
:102C800062038091630390916403A0916503B09106
:102C900066030196A11DB11D8093630390936403A5
:102CA000A0936503B0936603BF91AF919F918F91FD
:102CB0003F912F910F900FBE0F901F90189526E80F
:102CC000230F0296A11DB11DD2CF1F920F920FB6F6
:102CD0000F9211242F933F934F935F936F937F93A2
:102CE0008F939F93AF93BF93EF93FF938091B9001E
:102CF000887F803609F44AC0F0F5883209F4A5C00F
:102D000018F5803109F499C0B8F4882309F4F5C0A6
:102D1000883009F492C0FF91EF91BF91AF919F91DC
:102D20008F917F916F915F914F913F912F910F9074
:102D30000FBE0F901F901895883109F486C080321D
:102D400051F78093370314C0803409F49BC040F4DA
:102D50008033B9F38833F9F68093370385ECAEC03E
:102D6000803509F483C0883509F494C0883499F615
:102D70000E949714D0CF883909F48AC038F5883773
:102D800029F050F4883611F0803729F683E08093DB
:102D900038031092360355C0883809F479C0803959
:102DA00019F0803809F0B7CF80913603803208F0EF
:102DB0006FC0E091360381E08E0F809336038091DF
:102DC000BB00F0E0EA5EFC4F80833BC0803B39F003
:102DD000D0F4803A09F477C0883A09F09CCF84E0B7
:102DE000809338031092150310921403F0E0E0E092
:102DF00009958091140381110FC081E08093140321
:102E00001092F40209C0803C09F4A8CF883C09F470
:102E1000A5CF883B09F07FCFE091150381E08E0FAD
:102E200080931503F0E0EC50FD4F80818093BB0050
:102E3000909115038091140329C080915D038093C4
:102E4000BB0085EC8093BC0066CF90915C038091C1
:102E50005B03981758F5E0915C0381E08E0F809337
:102E60005C03F0E0E55CFC4F8081E9CFE0915C031E
:102E700081E08E0F80935C038091BB00F0E0E55C05
:102E8000FC4F808390915C0380915B039817C8F29C
:102E900085E8D8CFE0915C0381E08E0F80935C03DE
:102EA0008091BB00F0E0E55CFC4F808380913A03A9
:102EB00081115ECF81E08093390384EA8093BC0066
:102EC0001092380328CF85EC8093BC001092380311
:102ED00080913603803230F4E0913603F0E0EA5E10
:102EE000FC4F10826091360370E086E193E0F0E0E1
:102EF000E0E00995109236030ECF1092370338CFD9
:102F0000A8E6B3E013961C921E92129720E830E0D8
:102F100015963C932E93149780EA90E017969C9315
:102F20008E93169719963C932E9318971B969C9305
:102F30008E931A9756961C9256971D961C921E9227
:102F40001C971F961C921E921E9781E055968C939B
:102F5000559754968C9354972FEF3FEF53963C938D
:102F60002E93529751963C932E93509757968C934D
:102F7000579758961C9258975A961C921E9259979A
:102F8000D5961C92D59788E0D6968C93D6978AE0F2
:102F9000D7968C93D79789E0D8968C93D897DA9662
:102FA0001C921E92D997DC961C921E92DB97DD969E
:102FB0001C92DD97DE961C92DE971092A70310926A
:102FC000A8031092A9031092AA0387E693E09096B3
:102FD0009C938E935F97E0E2F6E0E491F0E0EE0FD1
:102FE000FF1FE35FF94F859194915E969C938E93BA
:102FF0005D97E2E0F6E08491D3968C93D397E1E27B
:10300000F6E0E491F0E0EE0FFF1FE35FF94F25914A
:1030100034915C963C932E935B97E3E0F6E0E49169
:10302000D196EC93D197E095D296EC93D297E82F76
:10303000E095D496EC93D4971092AB031092AC0326
:103040001092AD0384E091E08D939C930895CF930B
:10305000DF93CDB7DEB72B970FB6F894DEBF0FBE68
:10306000CDBF789484B5826084BD84B5816084BD11
:1030700085B5826085BD85B5816085BD80916E0016
:10308000816080936E001092810080918100826047
:103090008093810080918100816080938100809184
:1030A00080008160809380008091B1008460809373
:1030B000B1008091B00081608093B00080917A006F
:1030C000846080937A0080917A00826080937A0095
:1030D00080917A00816080937A0080917A00806884
:1030E00080937A001092C10040E050E0BA0188E677
:1030F00093E00E940C158EEB95E00E94990B81EBFA
:1031000095E00E94990B86E895E00E94990B80EC6F
:103110008983BE016F5F7F4F88E693E00E94300C89
:10312000A2E0EA2EE092AE0360E088E693E00E941F
:10313000A00C0E94430470E060E088E693E00E94E7
:10314000FC110E94430464EF71E080E090E00E9473
:10315000100470E060E088E693E00E94FC11109299
:1031600075031092740310927703109276030FEF99
:103170001FEF10937B0300937A031093790300935E
:103180007803FF24F394F0927F0383E391E00E949D
:10319000B01368EE73E080E090E00E94100410929B
:1031A0007F0370E060E088E693E00E94FC111092DB
:1031B0007503109274038EE190E0909377038093EF
:1031C000760380E098EF90937B0380937A0390934B
:1031D000790380937803F0927C03F0927D0381EA77
:1031E00092E00E94011480EE9FEF90937B03809306
:1031F0007A039093790380937803E0927C03E092C2
:103200007D0381EA92E00E940114B0EECB2EB7E07C
:10321000DB2ED0927B03C0927A03D0927903C092C6
:10322000780383E080937C0380937D0381EA92E0BE
:103230000E9401148FE190E090937B0380937A03C6
:10324000909379038093780384E080937C03809348
:103250007D0342E065E272E58AE994E40E940F147E
:103260006CED75E080E090E00E9410041092750310
:1032700010927403109277031092760370E060E06E
:1032800088E693E00E94FC1110937B0300937A037D
:103290001093790300937803F0927C03F0927D03FE
:1032A00081EA92E00E940114F0927C03F0927D0387
:1032B000D0927B03C0927A03D0927903C0927803B4
:1032C00046E06AED7FE089E490E40E940F148EEA04
:1032D00092E00E9401148FE992E00E94011440E103
:1032E0006DEE7FE584E890E00E94BD1388EB92E0EC
:1032F0000E9401148FE992E00E94011410937B0355
:1033000000937A03109379030093780384EC92E09E
:103310000E94011484ED92E00E9401148FE198EF65
:1033200090937B0380937A0390937903809378033F
:103330000E94430428EE33E040E050E00E94F42075
:10334000CA01B9014AE00E94BD1310937B030093A8
:103350007A03109379030093780382EE92E00E943F
:10336000B01360EA7FE080E090E00E94100440919A
:1033700072035091730357FF02C04F5F5F4F559523
:103380004795609170037091710377FF02C06F5F82
:103390007F4F7595679520EE37E088E693E00E94B1
:1033A000520664EF71E080E090E00E94100470E04B
:1033B00060E088E693E00E94FC11D12CC12C0091C2
:1033C0007203109173038091700390917103C8167A
:1033D000D9069CF40150110950EEE52EFF24FA9411
:1033E000960150E040E070E060E088E693E00E94E3
:1033F000841126E0C20ED11CE2CFD12CC12C8091C9
:10340000720390917303C816D906BCF4209170031F
:10341000309171032150310940EEE42EFF24FA94DB
:10342000860150E040E070E060E088E693E00E94B2
:10343000841136E0C30ED11CE2CF70E060E088E674
:1034400093E00E94FC11D12CC12C6091700370910B
:1034500071030091720310917303C616D7069CF492
:10346000015011096150710930EEE32EFF24FA94E6
:10347000960150E040E088E693E00E94841146E027
:10348000C40ED11CE2CFD12CC12C8091720390913B
:103490007303C816D906BCF4609170037091710370
:1034A0006150710920EEE22EFF24FA94860130E08B
:1034B00020E050E040E088E693E00E94841156E06E
:1034C000C50ED11CE2CF70E060E088E693E00E9478
:1034D000FC11D12CC12C4091720350917303809147
:1034E000700390917103C816D9069CF4415051099C
:1034F00090EEE92EFF24FA9410E000E0960170E0CF
:1035000060E088E693E00E94841186E0C80ED11C3A
:10351000E2CFD12CC12C4091720350917303C41699
:10352000D506BCF42091700330917103215031090C
:103530004150510980EEE82EFF24FA94860170E094
:1035400060E088E693E00E94841196E0C90ED11CE9
:10355000E2CF70E060E088E693E00E94FC11D12C9D
:10356000C12C60917003709171034091720350916E
:103570007303C616D7069CF4415051096150710976
:1035800000EEE02EFF24FA9410E000E0960188E6B9
:1035900093E00E94841126E0C20ED11CE2CFD12C10
:1035A000C12C4091720350917303C416D506BCF42C
:1035B000415051096091700370917103615071091C
:1035C00010EEE12EFF24FA94860130E020E088E638
:1035D00093E00E94841136E0C30ED11CE2CF64EF69
:1035E00071E080E090E00E94100470E060E088E606
:1035F00093E00E94FC11F12CE12C2091700330919A
:1036000071038091720390917303E816F9066CF4CC
:1036100000E018EFA70170E060E088E693E00E9408
:10362000BE0745E0E40EF11CE8CFF12CE12C8091BF
:10363000700390917103E816F9068CF420917203DF
:10364000309173030FE110E050E040E0B70188E6ED
:1036500093E00E944D0755E0E50EF11CE8CF64EFC2
:1036600071E080E090E00E94100470E060E088E685
:1036700093E00E94FC11D12CC12C80917003909199
:103680007103C816D90644F5B601D7FE02C06F5FB4
:103690007F4F75956795719561957109409172039A
:1036A0005091730357FF02C04F5F5F4F5595479589
:1036B000460F571F95958795680F791FA0EEEA2E44
:1036C000A7E0FA2E8601960188E693E00E94251174
:1036D00086E0C80ED11CD1CF64EF71E080E090E0AD
:1036E0000E94100470E060E088E693E00E94FC1104
:1036F000C0907003D090710391E0C91AD10827E0FF
:10370000C216D1040CF453C05601D7FE03C03FEFDC
:10371000A31AB30AB594A794B194A194B1084091A7
:1037200072035091730357FF02C04F5F5F4F55956F
:1037300047954A0D5B1D609170037091710377FF8F
:1037400002C06F5F7F4F759567956A0D7B1D20EEF8
:10375000E22EFF24FA948601960188E693E00E9407
:103760002F08409172035091730357FF02C04F5FBF
:103770005F4F559547954A0D5B1D609170037091A1
:10378000710377FF02C06F5F7F4F759567956A0D74
:103790007B1D0FE1E02E08EFF02E8601960188E6F2
:1037A00093E00E94251146E0C41AD108A8CF64EF27
:1037B00071E080E090E00E94100470E060E088E634
:1037C00093E00E94FC11BAE0CB2ED12C80917003C3
:1037D00090917103C816D90694F5AAE0AA2EB12CCF
:1037E0008091720390917303A816B90624F588E6B8
:1037F00093E00E94870BA5014A5051090FE110E0A8
:1038000025E130E0B60188E693E00E94BB08FFE1C5
:10381000EF2EF12C10E000E023E04AE050E0B5018B
:10382000C6010E94FC0888E693E00E94360D54E130
:10383000A50EB11CD5CF84E1C80ED11CC7CF26EF91
:103840003FEF3B872A874AE050E05F834E83B12CED
:10385000A12C80917003909171030A96A816B90665
:103860000CF0CEC0D12CC12C8091720390917303C7
:103870000A96C816D9060CF0B4C088E693E00E94F8
:10388000870B2FEF3FEFA601465F5F4FB50188E63C
:1038900093E00E94800A2FEF3FEFA6014A505109A2
:1038A000B50188E693E00E94800A2FEF3FEFA60162
:1038B0006E817F8188E693E00E94800A2FEF3FEFC0
:1038C000A6016A857B8588E693E00E94800A81E0F4
:1038D00090E09B838A83912C812C0AE010E02CEEEF
:1038E0003FEF39872887E7EF4E2E55245A945FEF34
:1038F000851A950A8A819B8102969B838A83480E4A
:10390000591E14012A0C3B1C2FEF3FEF3601600EAD
:10391000711EA301B10188E693E00E94800A75013F
:10392000E818F9082FEF3FEFA301B70188E693E00D
:103930000E94800A2FEF3FEF3601601A710AA3013F
:10394000B10188E693E00E94800A2FEF3FEFA301C8
:10395000B70188E693E00E94800A7401EC0CFD1C1C
:103960002FEF3FEFA7011501200E311EB10188E6B0
:1039700093E00E94800A2FEF3FEFA7017501E01A44
:10398000F10AB70188E693E00E94800A36016818C0
:1039900079082FEF3FEFA301B10188E693E00E9481
:1039A000800A2FEF3FEFA301B70188E693E00E9462
:1039B000800A8016910644F088E693E00E94360D56
:1039C00094E1C90ED11C50CF57FC91CF0150110981
:1039D000488559854E5F5F4F59874887440E551E6D
:1039E00086CF24E1A20EB11C4E815F814C5E5F4FF9
:1039F0005F834E838A859B8544969B878A8729CFE0
:103A000064EF71E080E090E00E94100470E060E0FC
:103A100088E693E00E94FC1124E630E03B872A8789
:103A200080917003909171035C0132E0A31AB10898
:103A30002091720330917303290142E0441A510826
:103A4000A90143505109598748879C0123503109E6
:103A50003B832A83CA84DB84312C212C1F821E8263
:103A6000A414B5040CF087C17501B7FE03C03FEF85
:103A7000E31AF30AF594E79455E0E516F1041CF017
:103A800065E0E62EF12C88E693E00E94870B470163
:103A9000880C991C3501681879088E819F818E0DDC
:103AA0009F1D9D838C8386019301A101BC0188E643
:103AB00093E00E94D7099301488559856C817D81E7
:103AC00088E693E00E94D70932016818790841011D
:103AD0008E0C9F1C9301A4016E817F8188E693E088
:103AE0000E94BB089301A4016A817B8188E693E070
:103AF0000E94BB0821E0A701B4018C819D810E9436
:103B0000B20A6A807B806E187F0822E0A701B401A8
:103B1000C3010E94B20A888499848E189F0824E009
:103B2000A701B401C3010E94B20A28E0A701B401B1
:103B30008C819D810E94B20A88E693E00E94360D36
:103B40002E813F812E5F3F4F3F832E8333E0230E34
:103B5000311C44E0A41AB10856E0451A510884EB20
:103B6000C81A8BEFD80A288539852350310939873F
:103B700028874A815B81425051095B834A8353E322
:103B80002516310409F06CCF8A859B858059964BA8
:103B90009B878A8784399F4609F042CF64EF71E0A2
:103BA00080E090E00E94100470E060E088E693E01E
:103BB0000E94FC112090700330907103C10137FC0A
:103BC0000196AC01559547955B834A8380907203BB
:103BD00090907303D12CC12C412C48EF542E51E00E
:103BE000851A910831016C187D085401AC18BD0884
:103BF000720185019601A6016A817B8188E693E0C6
:103C00000E9484119301A501B60188E693E00E9409
:103C1000841186012A813B81A501B30188E693E0E6
:103C20000E94841184E0C80ED11C94E6490E511CF8
:103C300020E442162EEF5206A9F664EF71E080E010
:103C400090E00E94100470E060E088E693E00E943B
:103C5000FC11EE24EA94FE2C08E010E02CE330E0A6
:103C60004EE450E06AE070E089E190E00E94AC0D23
:103C700080E098EF0E94410D64EF71E080E090E0F9
:103C80000E9410042CE330E04EE450E06AE570E05E
:103C900089E190E00E94AC0D90EEE92E97E0F92EBC
:103CA00005E010E02DE230E044E150E062E670E033
:103CB00087E290E00E94AC0D2DE230E044E150E05C
:103CC00062E670E085E490E00E94AC0D64EF71E084
:103CD00080E090E00E9410048FE190E00E94410D8E
:103CE00062E370E080E090E00E941004E12C28EF95
:103CF000F22E2DE230E044E150E062E670E087E22F
:103D000090E00E94AC0D2DE230E044E150E062E62C
:103D100070E085E490E00E94AC0D80EE97E00E9498
:103D2000410D64EF71E080E090E00E94100468EEC5
:103D300073E080E090E00E94100400E010E061E099
:103D400088E693E00E94350664EF71E080E090E041
:103D50000E94100460E088E693E00E94350664EF5C
:103D600071E080E090E00E9410040115110539F324
:103D70000E940000E4CF720157FE7CCE4FEFE41AA0
:103D8000F40A78CE5058BB27AA270E94DA1E0C945A
:103D90004D200E943F2038F00E94462020F039F448
:103DA0009F3F19F426F40C943C200EF4E095E7FBB9
:103DB0000C943620E92F0E945E2058F3BA17620750
:103DC00073078407950720F079F4A6F50C948020FA
:103DD0000EF4E0950B2EBA2FA02D0B01B901900126
:103DE0000C01CA01A0011124FF27591B99F0593F6A
:103DF00050F4503E68F11A16F040A22F232F342FB2
:103E00004427585FF3CF469537952795A795F040FF
:103E10005395C9F77EF41F16BA0B620B730B840B14
:103E2000BAF09150A1F0FF0FBB1F661F771F881FCC
:103E3000C2F70EC0BA0F621F731F841F48F4879524
:103E400077956795B795F7959E3F08F0B0CF939516
:103E5000880F08F09927EE0F9795879508950E948F
:103E6000122008F481E008950E94481F0C944D2010
:103E70000E94462058F00E943F2040F029F45F3F06
:103E800029F00C94362051110C9481200C943C2084
:103E90000E945E2068F39923B1F3552391F3951B9B
:103EA000550BBB27AA2762177307840738F09F5F5B
:103EB0005F4F220F331F441FAA1FA9F335D00E2EC8
:103EC0003AF0E0E832D091505040E695001CCAF735
:103ED0002BD0FE2F29D0660F771F881FBB1F2617F8
:103EE00037074807AB07B0E809F0BB0B802DBF01CF
:103EF000FF2793585F4F3AF09E3F510578F00C949E
:103F000036200C9481205F3FE4F3983ED4F38695ED
:103F100077956795B795F7959F5FC9F7880F911DBE
:103F20009695879597F90895E1E0660F771F881FAA
:103F3000BB1F621773078407BA0720F0621B730B5D
:103F4000840BBA0BEE1F88F7E09508950E94662057
:103F500088F09F5798F0B92F9927B751B0F0E1F04A
:103F6000660F771F881F991F1AF0BA95C9F714C0FA
:103F7000B13091F00E948020B1E008950C9480202F
:103F8000672F782F8827B85F39F0B93FCCF3869533
:103F900077956795B395D9F73EF490958095709590
:103FA00061957F4F8F4F9F4F0895E89409C097FB0D
:103FB0003EF490958095709561957F4F8F4F9F4F00
:103FC0009923A9F0F92F96E9BB279395F695879544
:103FD00077956795B795F111F8CFFAF4BB0F11F407
:103FE00060FF1BC06F5F7F4F8F4F9F4F16C08823AE
:103FF00011F096E911C0772321F09EE8872F762FE4
:1040000005C0662371F096E8862F70E060E02AF024
:104010009A95660F771F881FDAF7880F9695879510
:1040200097F90895990F0008550FAA0BE0E8FEEFE5
:1040300016161706E807F907C0F012161306E4076C
:10404000F50798F0621B730B840B950B39F40A2665
:1040500061F0232B242B252B21F408950A2609F443
:10406000A140A6958FEF811D811D089597F99F6747
:1040700080E870E060E008959FEF80EC08950024F0
:104080000A941616170618060906089500240A94BD
:1040900012161306140605060895092E0394000C43
:1040A00011F4882352F0BB0F40F4BF2B11F460FFD2
:1040B00004C06F5F7F4F8F4F9F4F089557FD9058FB
:1040C000440F551F59F05F3F71F04795880F97FBDC
:1040D000991F61F09F3F79F0879508951216130696
:1040E0001406551FF2CF4695F1DF08C016161706C5
:1040F0001806991FF1CF86957105610508940895FA
:10410000E894BB2766277727CB0197F908950E948B
:104110009A200C944D200E943F2038F00E944620A7
:1041200020F0952311F00C9436200C943C2011249F
:104130000C9481200E945E2070F3959FC1F3950F2F
:1041400050E0551F629FF001729FBB27F00DB11D1B
:10415000639FAA27F00DB11DAA1F649F6627B00DAB
:10416000A11D661F829F2227B00DA11D621F739F94
:10417000B00DA11D621F839FA00D611D221F749FA2
:104180003327A00D611D231F849F600D211D822FE9
:10419000762F6A2F11249F5750409AF0F1F0882310
:1041A0004AF0EE0FFF1FBB1F661F771F881F91503D
:1041B0005040A9F79E3F510580F00C9436200C9496
:1041C00081205F3FE4F3983ED4F386957795679519
:1041D000B795F795E7959F5FC1F7FE2B880F911D67
:1041E0009695879597F90895A1E21A2EAA1BBB1BF5
:1041F000FD010DC0AA1FBB1FEE1FFF1FA217B307B3
:10420000E407F50720F0A21BB30BE40BF50B661FC8
:10421000771F881F991F1A9469F76095709580958C
:1042200090959B01AC01BD01CF010895052E97FB30
:104230001EF400940E942D2157FD07D00E94F42007
:1042400007FC03D04EF40C942D21509540953095E9
:1042500021953F4F4F4F5F4F0895909580957095F2
:1042600061957F4F8F4F9F4F08950E943D213323CB
:1042700012F48A1B9B0B0C944E21A29FB001B39F9A
:10428000C001A39F700D811D1124911DB29F700D5F
:10429000811D1124911D08950E943D21B7FF0895AD
:1042A000821B930B0895EE0FFF1F0590F491E02DF4
:1042B000099481E090E0F8940C945E21F894FFCF8B
:1042C0000000000053104103AD13AC135206870BDE
:1042D000800A170ABB08D709FF12360DA00C350655
:1042E0004D07BE072F08FC11841125110C15D305AD
:1042F0000D0A004C6F72656D20697073756D2064D6
:104300006F6C6F722073697420616D65742C20630B
:104310006F6E73656374657475722061646970692A
:104320007363696E6720656C69742E2043757261D2
:1043300062697475722061646970697363696E671C
:1043400020616E746520736564206E6962682074F4
:10435000696E636964756E742066657567696174FA
:104360002E204D616563656E617320656E696D20F9
:104370006D617373612C206672696E67696C6C6124
:1043800020736564206D616C65737561646120657F
:10439000742C206D616C6573756164612073697440
:1043A00020616D6574207475727069732E20536579
:1043B0006420706F72747469746F72206E657175A9
:1043C0006520757420616E746520707265746975FE
:1043D0006D207669746165206D616C6573756164CB
:1043E00061206E756E6320626962656E64756D2E04
:1043F000204E756C6C616D20616C697175657420FF
:10440000756C747269636573206D61737361206587
:10441000752068656E6472657269742E205574200B
:10442000736564206E697369206C6F72656D2E20F0
:10443000496E20766573746962756C756D20707550
:10444000727573206120746F72746F7220696D7061
:1044500065726469657420706F73756572652E206E
:104460000048656C6C6F20576F726C642100205798
:10447000616E742070693F00205072696E7420482C
:1044800045582100536B657463682068617320622E
:1044900065656E0072756E6E696E6720666F723A42
:0C44A0002000207365636F6E64732E00B3
:00000001FF
